:020000040800F2
:10000000800F002001010008090100080B01000811
:100010000D0100080F010008110100080000000098
:1000200000000000000000000000000013010008B4
:100030001501000800000000170100081901000860
:100040001B0100081B0100081B0100081B01000820
:100050001B0100081B0100081B0100081B01000810
:100060001B0100081B0100081B0100081B01000800
:100070001B0100081B0100081B0100081B010008F0
:100080001B0100081B0100081B0100081B010008E0
:100090001B0100081B0100081B0100081B010008D0
:1000A0001B0100081B0100081B010008D52D0008DA
:1000B000692E00081B010008E52F00081B0100083D
:1000C0001B0100081B0100081B0100081B010008A0
:1000D0001B010008513800081B0100081B01000823
:1000E0001B0100081B0100081B010008DFF80CD0F1
:1000F00000F05EFC00480047614E0008800F0020C1
:100100000648804706480047FEE7FEE7FEE7FEE7B1
:10011000FEE7FEE7FEE7FEE7FEE7FEE7F52A00085A
:10012000ED00000840EA01039B0703D009E008C97D
:10013000121F08C0042AFAD203E011F8013B00F8AC
:10014000013B521EF9D27047F0B480EA0102D40F8D
:100150004200B2EB410F02D20246084611464A0065
:1001600042D0C30DDDB2C1F3C752AD1A202D35DA2E
:10017000C1F3160141F4000204B15242C5F1200658
:1001800002FA06F12A411044B3EBD05F23D0C4B188
:10019000012DA0EBC35009DCF0BC4FF0004202EA95
:1001A000C352DBB200F5000000F011BB400000F1CB
:1001B000807000EBC350A0F1807040EAD17049001C
:1001C00009E0490841EAC071A0EBC35000F5000006
:1001D000400800EBC350F0BC00F0F0BA61420122CD
:1001E00002EB4101001BF6E7F0BC704781F00041D3
:1001F000AAE780F00040A7E780EA010210B502F00C
:100200000043400022D04A001FD0010E01EB1261D2
:10021000C0F35600C2F3560240F4000042F400025C
:10022000A0FB022000047F39140400D0401C50EAD7
:10023000124001D44000491EC2B20C0604EBD0109B
:10024000401C4008802A02D003E0002010BD20F0AE
:100250000100002900DA0020184310BD30B480EA04
:10026000010202F0004530F0004221F0004013D0BE
:1002700090B1C30DD40DC2F31601C0F31600E41AF9
:1002800041F4000140F400027D34914201D3641C2A
:1002900000E04900002C02DA30BC002070474FF427
:1002A00000000023914201D3891A034340084FEA1A
:1002B0004101F7D151B1914202D14FF0004105E027
:1002C00002D24FF0010101E06FF0010103EBC450D5
:1002D000284430BC00F072BA2DE9FE4F804681EA16
:1002E0000300C00F0C46009021F0004123F00045B0
:1002F000B8EB0200A94105D24046214690461C4673
:100300000B46024623F00040104347D0270DC7F3A9
:100310000A00C3F30A510290401A019040286BDA98
:10032000C3F3130040F4801B0098924620B10023D1
:10033000D2EB030A63EB0B0B01985946C0F1400264
:10034000504600F01AFA06460D4650465946019AA4
:1003500000F022FA10EB08006141002487EA1152F4
:1003600084EAE7731A4340D0009A62B3019A012AE3
:100370004FEA075215DC001B61EB02014FF000420F
:1003800002EA0752CDE90042001C41F580113246D5
:100390002B4600F077FA03B0BDE8F08F40462146C7
:1003A000F9E7001B61EB0201001C41F58013001806
:1003B0005B412018A2F5001747EB030140EAD57016
:1003C000B6196D4111E06D084FEA360645EAC07571
:1003D0004FEA0752001B61EB0201001C41F580113E
:1003E00049084FEA30000019514132462B4603B00C
:1003F000BDE8F04F00F037BA00980122400000231A
:10040000D0EB020263EBE073009821464FEAE07400
:10041000B8EB000061EB0401E9E783F000435BE720
:1004200081F0004158E72DE9FE4F81EA030404F012
:10043000004421F0004100944FF0000B23F00043F2
:1004400050EA01045ED052EA03045BD0C3F30A54BD
:10045000C1F30A552C44A4F2F3340194A0FB0254D6
:10046000C1F3130141F48011C3F3130343F4801368
:1004700001FB024400FB034E840A970A44EA8154BC
:1004800047EA8357A4FB076802958D0A05FB078599
:100490004FEA932C04FB0C542705029D4FEA0658A3
:1004A00047EA1637B5EB08056EEB070C870E920E80
:1004B00047EA811742EA8312A7FB0201B6EB0B0160
:1004C00064EB00042B0D43EA0C335E1844EB1C5024
:1004D000DA465146E7FB0201C5F313044FEA0B333A
:1004E00043EA14534FEA0432019C43EA0603A4F1A1
:1004F0000C040294009CCDE900B400F0C3F903B0F1
:10050000BDE8F08F00200146F9E72DE9F04D81EAC2
:10051000030404F0004B21F0004514464FF0000A9C
:1005200023F0004150EA050220D054EA01021DD018
:10053000C5F30A570246C5F31303C1F31300C1F311
:100540000A5640F4801543F48013A7EB0608101BED
:10055000D64608F2FD3873EB050002D308F1010816
:1005600001E092185B41B8F1000F03DA0020014668
:10057000BDE8F08D00204FF48011064684460EE061
:10058000171B73EB050705D3121B63EB050306432B
:100590004CEA010C49084FEA300092185B4150EADE
:1005A0000107EDD152EA030012D082EA040083EA87
:1005B0000501084305D0101BAB4106D201220023E0
:1005C00006E000224FF0004302E06FF001025310FA
:1005D0001AEB06004CEB085110EB0A0041EB0B0143
:1005E000BDE8F04D00F03FB9C10F80EAE07008446B
:1005F000CA079623002100F0EAB89623002211468C
:1006000000F0E5B800F0004220F00040C10DC0F35A
:10061000160040F400007F2901DA00207047962977
:1006200003DCC1F19601C84001E096398840002AF8
:10063000F4D04042704700F0004230F000400AD051
:10064000C10D01F56071C0F3160042EA0151C20804
:1006500040071143704700200146704730B5041E23
:1006600071F1000404DB4FF00044404264EB0101EF
:10067000141E73F1000405DB1C464FF00043524288
:1006800063EB04038B4208BF824230BD01F000439C
:1006900030B421F0004150EA010206D00A0DA2F563
:1006A0006072C1F31301002A02DC30BC00207047E5
:1006B000440F44EAC104C100E01830BC00EBC25052
:1006C00000F07CB8002801DBC0F10040002901DB0C
:1006D000C1F1004181427047002801DBC0F10040B8
:1006E000002901DBC1F100418842704730B50B465B
:1006F000014600202022012409E021FA02F59D4252
:1007000005D303FA02F5491B04FA02F52844151E25
:10071000A2F10102F1DC30BD2DE9F05F05460020B9
:1007200092469B4688460646814640241BE0284662
:1007300041464746224600F04DF953465A46C01AF4
:10074000914110D311461846224600F016F82D1A92
:1007500067EB01084F4622460120002100F00DF80A
:1007600017EB00094E41201EA4F10104DFDC4846CE
:1007700031462A464346BDE8F09F202A04DB203A52
:1007800000FA02F1002070479140C2F1200320FAE4
:1007900003F3194390407047202A06DBCB17203A19
:1007A00041FA02F043EAE07306E041FA02F3D04076
:1007B000C2F1200291400843194670470029A8BFA2
:1007C0007047401C490008BF20F00100704710B47A
:1007D000B0FA80FC00FA0CF050EA010404BF10BC2F
:1007E000704749B1CCF1200421FA04F411FA0CF15C
:1007F00018BF012121430843A3EB0C01CB1D4FEA95
:1008000000614FEA102042BF002010BC704700EB8F
:10081000C35010440029A4BF10BC7047401C4900BD
:1008200008BF20F0010010BC704710B541000CD08B
:10083000C0F3C751962908DC7E2909DC06DB41029A
:1008400004D000F0004040F07E5010BD002010BDEC
:10085000C1F19604C4F1200100FA01F1E040FFF774
:10086000ADFFA04010BD10B5141E73F1000408DAEE
:10087000401C41F1000192185B411A4301D120F064
:10088000010010BD2DE9F04D92469B4611B1B1FA21
:1008900081F202E0B0FA80F220329046FFF76DFF5D
:1008A00004460F4640EA0A0041EA0B0153465A4605
:1008B000084313D0114653EA010019D0C8F1400291
:1008C000504600F087F805460E46504659464246C7
:1008D000FFF753FF084305D0012004E020463946C6
:1008E000BDE8F08D0020054346EAE0762C4337430F
:1008F0000A986305E40AA0EB08000022FD0A44EA16
:1009000047540A3002D500200146E9E701051019D5
:100910006941DDE9084500196941BDE8F04DA2E7EC
:1009200070B521F0004303430CD0C1F30A550024F5
:10093000D5EB040564EB0403D617AD1AB34102DB13
:100940000020014670BD201841EB025170BDC1F37B
:100950000A52C1F3130140F2FF3341F480119A426D
:1009600002DA00200146704740F233439A42A2F275
:10097000334202DC524200F02DB8FFF7FEBE000009
:1009800030B5041E71F1000404DB4FF00044404216
:1009900064EB0101141E73F1000405DB1C464FF0EB
:1009A0000043524263EB0403994208BF904230BDBA
:1009B000064C074D06E0E06840F0010394E80700AC
:1009C00098471034AC42F6D3FFF794FB5059000817
:1009D00070590008202A04DB203A21FA02F0002195
:1009E000704721FA02F3D040C2F12002914008433F
:1009F00019467047420005D0C0F3C7525242914297
:100A000001DC0020704700EBC15070472DE9F04D2C
:100A100000231A461B1A8A4103DB00200146BDE869
:100A2000F08DC1F30A52C1F3130141F480154FF068
:100A3000000BD10702D100186D41521E0027044659
:100A400040F2FF11384601EB620A3E4680460246FC
:100A500000204FF48011FFF7BDFFC2197141BB1890
:100A600046EB0100B4EB030C75EB000C04D3E41A65
:100A700065EB000517460E46241908F101006D418B
:100A800080463428E3DDF91946EB0600091BA8412E
:100A900003D24FF0FF32134601E0002213461BEB56
:100AA000070046EB0A51BDE8F04DFFF7DCBE70B51C
:100AB0008C1810F8015B15F0070301D110F8013B09
:100AC0002A1106D110F8012B03E010F8016B01F890
:100AD000016B5B1EF9D12B0705D40023521E0DD4E8
:100AE00001F8013BFAE710F8013BCB1A921C03E036
:100AF00013F8015B01F8015B521EF9D5A142D8D36E
:100B0000002070BD70B51049B1F90000FFF76CFD11
:100B100005460E4A0E4901F019F90446FFF772FD29
:100B200000B209490880B1F90200FFF75DFD0546F2
:100B3000064A0749183101F009F90446FFF762FD3A
:100B400000B20149488070BD2C0000203C0000200C
:100B5000F001002010B5174A1749184801F036FF78
:100B6000174A1849154801F031FF174A1749134829
:100B700001F02CFF164A1749104801F027FF164ACA
:100B800016490E4801F022FF154A16490B4801F09C
:100B90001DFF154A1549094801F018FF144A154967
:100BA000064801F013FF144A4FF08041034801F05A
:100BB0000DFF10BD380200200000A0420000484395
:100BC00050020020000070426802002000004C42E9
:100BD000800200200000F041980200200000A041A7
:100BE000B002002000007041C80200200000204137
:100BF000E00200200000A040F80200202DE9F04FA4
:100C000087B081468A4614469B46C2480078012830
:100C100064D14FF4FA7000F0C7F90020BE490870A3
:100C20002BE0BE49B1F90000FFF7DEFC0546BC48E9
:100C300001682846FFF788FAB9490860B749B1F951
:100C40000200FFF7D1FC0546B64801682846FFF7C9
:100C50007BFAB4490860B149B1F90600FFF7C4FC5A
:100C60000546B14801682846FFF76EFAAE490860AC
:100C7000A9480078401CA8490870A74800780A28AD
:100C8000CFDBA7480068FFF7D6FC07460022A74B3A
:100C9000FFF73BFC0546FFF7F9FCA1490860A148B6
:100CA0000068FFF7C8FC07460022A04BFFF72DFCA9
:100CB0000546FFF7EBFC9B4908609B480068FFF77F
:100CC000BAFC07460022994BFFF71FFC0546FFF7C9
:100CD000DDFC9549086000208E490870D9F80000B5
:100CE0000490D9F804000590D9F808000690B4F9EA
:100CF0000000FFF779FC0646894801683046FFF797
:100D000078FA05468A49FFF7A9FA0190B4F902007A
:100D1000FFF76AFC0646834801683046FFF769FA28
:100D200005468349FFF79AFA0290B4F90600FFF7E7
:100D30005BFC06467C4801683046FFF75AFA0546D8
:100D40007B49FFF78BFA03907A48049A019901F0E6
:100D500013FB7948059A029901F00EFB7749DAF8FE
:100D60000400FFF749FA054672482A46416B744869
:100D700001F002FB7149DAF80000FFF73DFA80F05C
:100D800000456D482A46416B6E4801F0F5FA6B4903
:100D9000DAF80800FFF730FA05466B4A1168039845
:100DA000FFF72AFA06462A463146684801F0E4FA77
:100DB0005A48B0F90800B0F5AF6F06DB5748B0F9F4
:100DC000080040F6340188420BDD012060490870BC
:100DD0000020604908606049086060490860604917
:100DE00008604E48B0F9040040F24C4188420FDAE6
:100DF0004A48B0F90800B0F5AF6F09DD4748B0F9CF
:100E0000080040F63401884202DA00205049087098
:100E10004F48007800285FD1B4F90400FFF7E4FBE5
:100E200007464748416B3846FFF78EF90646454866
:100E3000416B3046FFF7DAF905464448416B2846D6
:100E4000FFF7D4F943490860B4F90400FFF7CCFB7D
:100E500007463B48416B3846FFF7C8F90646394814
:100E6000416B3046FFF7C2F905463848416B2846CA
:100E7000FFF76AF938490860B4F90400FFF7B4FBDA
:100E800007462F48416B3846FFF7B0F906462D4814
:100E9000416B3046FFF758F905462C48416B284610
:100EA000FFF7A4F92D490860B4F90400FFF79CFB93
:100EB00007462348416B3846FFF746F90646214866
:100EC000416B3046FFF740F905462048416B284604
:100ED000FFF73AF92249086021480068FFF792FBC2
:100EE00005B21E480068FFF78DFB06B21A4800687D
:100EF000FFF788FB07B217480068FFF783FB0FFA7C
:100F000080F82B4632463946404601F065F907B075
:100F1000BDE8F08F7A0100207B010020700B0020DB
:100F20007C0100208001002084010020000024407A
:100F300000002041080A0020440A0020A34C65421A
:100F4000BC0A0020F80A0020800A0020340B002090
:100F500006000020680100206C01002070010020C4
:100F60007401002010B56FF0040001F0AFFD0A48D5
:100F700000680A49B0FBF1F009490870084600789A
:100F800000EB4001C1EBC0104FF6FF7101EAC00059
:100F90000449088010BD0000C801002000127A003A
:100FA0001A0000201C000020014600224FF0E02320
:100FB0001A610E4A12884A435A6100229A611A46FF
:100FC000126942F001021A6100BF4FF0E02210697D
:100FD00000F001021AB100F48032002AF5D000229C
:100FE0004FF0E0231A619A61704700001C00002056
:100FF000014600224FF0E0231A610E4A12784A435C
:101000005A6100229A611A46126942F001021A617D
:1010100000BF4FF0E022106900F001021AB100F4A5
:101020008032002AF5D000224FF0E0231A619A6145
:10103000704700001A00002008B50121042001F0CB
:101040005BFB40F20F10ADF8000004208DF80300A8
:101050006946024800F0B4F808BD000000080140ED
:1010600010B5FFF7E9FF00F001F810BD00B589B039
:101070000121084601F030FB0121C80201F03CFBD0
:101080004FF6FF70ADF81C004720ADF818000020A7
:10109000ADF81E00ADF81A008DF8200006A94FF03B
:1010A000804002F0C5FA4FF6FF70ADF810004720FF
:1010B000ADF80C000020ADF81200ADF80E008DF870
:1010C000140003A93D4802F0B3FA0020ADF8000077
:1010D000ADF802000120ADF804000020ADF80600D4
:1010E000ADF8080069464FF0804002F06BF804202C
:1010F000ADF800000020ADF802000120ADF80400BA
:101100000020ADF80600ADF8080069464FF08040B9
:1011100002F058F80820ADF800000020ADF80200F9
:101120000120ADF804000020ADF80600ADF808007D
:1011300069464FF0804002F045F80C20ADF8000001
:101140000020ADF802000120ADF804000020ADF849
:101150000600ADF8080069464FF0804002F032F812
:101160000020ADF80000ADF802000120ADF8040049
:101170000020ADF80600ADF8080069460F4802F0FF
:1011800021F81F214FF0804001F0ECFF03210B48B4
:1011900001F0E8FF01221F21900702F069F8012207
:1011A0000321064802F064F80121880701F0E0FFFE
:1011B0000121024801F0DCFF09B000BD002C014014
:1011C0002DE9F041024600250026002000230024DE
:1011D000002791F803C00CF00F0591F803C00CF044
:1011E000100CBCF1000F03D091F802C04CEA0505C9
:1011F00091F800C0BCF1000F31D0146800202BE042
:101200004FF0010C0CFA00F3B1F800C00CEA030631
:101210009E4220D183004FF00F0C0CFA03F7BC4321
:1012200005FA03FC4CEA040491F803C0BCF1280F52
:1012300006D14FF0010C0CFA00FCC2F814C00AE011
:1012400091F803C0BCF1480F05D14FF0010C0CFA26
:1012500000FCC2F810C0401C0828D1D31460B1F8BB
:1012600000C0BCF1FF0F34DD546800202EE000F117
:10127000080C4FF0010808FA0CF3B1F800C00CEAB2
:1012800003069E4221D183004FF00F0C0CFA03F7A6
:10129000BC4305FA03FC4CEA040491F803C0BCF11A
:1012A000280F05D100F1080C08FA0CF8C2F81480D8
:1012B00091F803C0BCF1480F07D100F1080C4FF0C2
:1012C000010808FA0CF8C2F81080401C0828CED398
:1012D0005460BDE8F08141617047016170470000D2
:1012E00010B540200A49086001F0E6FA802008495C
:1012F00008600120FFF77CFE40200549091F0860B7
:101300000220FFF775FE40200149086010BD000073
:10131000140C014008B50121082001F0EDF9C020AE
:10132000ADF8000010208DF8030003208DF80200B6
:1013300069460448FFF744FFC0210248FFF7CDFF8C
:1013400008BD0000000C014010B540200A490860AB
:1013500001F0B2FA80200849091F08600120FFF758
:1013600047FE40200449091F08600120FFF740FEA6
:1013700040200149086010BD140C014070B50546BD
:10138000002401F087FA002618E040201049086088
:101390000120FFF72DFE40200D49091F086060065F
:1013A000040E0B480C380068C0F3C01008B1601C74
:1013B000C4B20120FFF71CFE701CC6B2082EE4DB8D
:1013C00015B1FFF78DFF01E0FFF7BEFF204670BDAE
:1013D000140C014070B504460D46164600F086F820
:1013E000204600F055F800F0B3F818B100F098F876
:1013F000012070BD284600F04BF800F0A9F800F07D
:1014000075F8611CC8B200F043F800F0A1F80020A4
:10141000FFF7B4FF307000F083F80020E9E72DE912
:10142000F04706460F4615469846002400F05EF841
:10143000304600F02DF800F08BF820B100F070F885
:101440000120BDE8F087384600F022F800F080F86F
:1014500000F04CF8711CC8B200F01AF800F078F8EF
:1014600000240FE0681EA04204D00120FFF786FF91
:10147000814603E00020FFF781FF814608F80490D1
:10148000601CC4B2AC42EDDB00F04AF80020D8E7A3
:1014900070B5044601F010FA402013490860002599
:1014A0001EE004F0800020B180200F49091F086071
:1014B00002E080200C4908606006040E0120FFF75E
:1014C00097FD40200849091F08600120FFF790FDA3
:1014D0004020054908600120FFF78AFD681CC5B25D
:1014E000082DDEDB70BD0000140C014010B501F0CA
:1014F000E3F9802009490860402008600420FFF7D4
:1015000077FD80200549091D08600420FFF770FD64
:1015100040200249091D086010BD0000100C014068
:1015200010B501F0C9F94020084908608020086022
:101530000420FFF75DFD40200449091F086080205A
:1015400008600420FFF754FD10BD0000140C01409A
:1015500010B5002401F09EF9802010490860012098
:10156000FFF746FD40200D4908600120FFF740FDD0
:1015700007E0601CC4B2FA2C03DDFFF7D1FF0120A5
:1015800010BD064808380068C0F3C0100028F0D12C
:1015900040200249091D08600020F1E7100C0140BD
:1015A00070B506460C461546FFF7A0FF3046FFF71C
:1015B0006FFFFFF7CDFF18B1FFF7B2FF012070BD3D
:1015C0002046FFF765FFFFF7C3FF2846FFF760FFE0
:1015D000FFF7BEFF18B1FFF7A3FF0120EFE7FFF70A
:1015E0009FFF0020EBE7000007B5B6B02422FE49BC
:1015F0002BA8FEF797FD379800682A903798406827
:1016000029903798806828903698006827903698F7
:1016100040682690369880682590F44801680068F4
:10162000FEF7EAFD1D90F2480168F0480068FEF7F9
:10163000E3FD1C90EF480168EC480068FEF7DCFD14
:101640001B90ED480168E9480068FEF7D5FD1A9047
:10165000E74801680068FEF7CFFD1990E54801688A
:10166000E3480068FEF7C8FD1890E3480168E048C9
:101670000068FEF7C1FD1790DE4801680068FEF7BC
:10168000BBFD1690DC480168DA480068FEF7B4FD3F
:101690001590D94801680068FEF7AEFD1490DDE9A9
:1016A0002910FEF7A9FD0A902899FEF7A5FD002153
:1016B0000B90FFF707F801D139B000BD2899084613
:1016C000FEF79AFD0A9029990846FEF795FD0890C5
:1016D0002A990846FEF790FD07900899FEF734FD19
:1016E00009900A99FEF730FD0B9003F093FB1E90D2
:1016F0001E992A98FEF780FD2A901E992998FEF7D8
:101700007BFD29901E992898FEF776FD28901B995D
:101710001798FEF76BFD4FF080410B90FEF76CFDC4
:10172000249015991C98FEF70FFD4FF080410B9007
:10173000FEF762FD239019991D98FEF757FD0A9058
:101740001699FEF753FD0B901499FEF7FDFC2290BD
:1017500023992898FEF750FD0B9022992998FEF7BF
:101760004BFD0A900B99FEF741FD219022992A9892
:10177000FEF742FD0B9024992898FEF73DFD0A9054
:101780000B99FEF733FD209024992998FEF734FD3C
:101790000B9023992A98FEF72FFD0A900B99FEF7DC
:1017A00025FD1F9095492198FEF726FD0B90944842
:1017B00001680B98FEF7C8FC914908608F49209892
:1017C000FEF71AFD0B908F4801680B98FEF7BCFCE2
:1017D0008C49086089491F98FEF70EFD0B908A48D6
:1017E00001680B98FEF7B0FC874908604FF07F5006
:1017F0002199FEF701FD0A902799FEF7A5FC0B90B1
:101800007F4801680B98FEF79FFC27904FF07F50B0
:101810002099FEF7F1FC0A902699FEF795FC0B90B3
:10182000784801680B98FEF78FFC26904FF07F50A8
:101830001F99FEF7E1FC0A902599FEF785FC0B90B5
:10184000714801680B98FEF77FFC25906A4825993E
:101850000068FEF7D1FC0990664826990068FEF7FB
:10186000CBFC07906248006880F000400590279903
:10187000FEF7C2FC06900799FEF7B8FC089009999C
:10188000FEF7B4FC5D490A90FEF7B6FC0B90574892
:1018900001680B98FEF758FC544908605648269991
:1018A0000068FEF7A9FC0990524825990068FEF7E8
:1018B000A3FC07904D4827990068FEF79DFC069011
:1018C0000799FEF741FC08900999FEF78FFC4B49F8
:1018D0000A90FEF791FC0B90454801680B98FEF7C3
:1018E00033FC43490860444827990068FEF784FCAC
:1018F00009903F4825990068FEF77EFC07903B4819
:1019000026990068FEF778FC06900799FEF76EFCB2
:1019100008900999FEF718FC38490A90FEF76CFC0C
:101920000B90344801680B98FEF70EFC31490860B3
:10193000304827990068FEF75FFC09902C482699EB
:101940000068FEF759FC0790284825990068FEF7C3
:1019500053FC06900799FEF7F7FB08900999FEF7EC
:1019600045FC26490A90FEF747FC0B902248016887
:101970000B98FEF7E9FB20490860084601680068FB
:10198000FEF73AFC0A901B4801680068FEF734FC39
:101990000890174801680068FEF72EFC069013486F
:1019A00001680068FEF728FC05900699FEF7CCFB5D
:1019B00007900899FEF7C8FB09900A99FEF7C4FB47
:1019C0000B9003F027FA1E9008481E990068FEF756
:1019D00013FC0649086006481E990068FEF70CFCD7
:1019E00003490860034811E01C58000880000020EB
:1019F00084000020880000208C0000200AD7A33B30
:101A00009000002094000020980000201E9900689B
:101A1000FEF7F2FB9E4908609E481E990068FEF79B
:101A2000EBFB9C49086019991D98FEF78DFB0A9005
:101A30001699FEF7DBFB0B901499FEF7D7FB2B9062
:101A40001A991898FEF780FB4FF080410B90FEF733
:101A5000D3FB2C901B991798FEF7C8FB4FF08041E1
:101A60000B90FEF7C9FB2D901A991898FEF7BEFB54
:101A70004FF080410B90FEF7BFFB2E9019991D98F7
:101A8000FEF7B4FB0A901699FEF75EFB0B901499D3
:101A9000FEF7ACFB2F901C991598FEF755FB4FF005
:101AA00080410B90FEF7A8FB30901B991798FEF72A
:101AB0004BFB4FF080410B90FEF79EFB31901C9941
:101AC0001598FEF793FB4FF080410B90FEF794FBC7
:101AD000329019991D98FEF789FB0A901699FEF726
:101AE00085FB0B901499FEF72FFB33903698806896
:101AF00069490990FEF780FB68490A90FEF77CFB74
:101B00000B903898806801460A900B98FEF71CFBF2
:101B1000389988601B991798FEF768FB4FF0804151
:101B20000490FEF769FB0590FEF785FDCDE90601FF
:101B300002F09CFD81F000414FF0C042584BCDE9CE
:101B40000801FEF770FCCDE90A01FEF79FFD389908
:101B5000086019991D98FEF749FB01901699FEF748
:101B600045FB02901499FEF7EFFA0390FEF763FD30
:101B7000CDE906014FF080401C99FEF73DFB029035
:101B80004FF080401599FEF737FB01900299FEF760
:101B9000DBFA0390FEF74FFDCDE90401DDE90623F2
:101BA00002F0ACFF81F000414FF0C0423C4BCDE968
:101BB0000801FEF738FCCDE90A01FEF767FD389908
:101BC0004860389840680990FEF735FD02460B469C
:101BD000CDE90A0133A001F079FF389840680B90F5
:101BE000FEF729FDCDE91201369800680B90FEF74B
:101BF00022FDCDE91001389800680B90FEF71BFD1F
:101C0000CDE90E01369840680B90FEF714FDCDE942
:101C10000C0128492848CDE90010DDE91023DDE951
:101C2000120103F0F7FACDE90A01FEF72FFD38990A
:101C3000486020482049CDE90001DDE90C23DDE9B9
:101C40000E0103F069FCCDE90A01FEF71FFD38998A
:101C50000860389840680990FEF7EDFC02460B4694
:101C6000CDE90A0115A001F031FF002034900AE00F
:101C70002BA9349851F82010144A42F820103498B7
:101C8000401CC0B2349034980928F1DB00BF13E542
:101C9000880000208C000020A34C65420AD7233C1A
:101CA00066A64C407069746368313A2025660D0A57
:101CB00000000000FCA9F1D24D62503F70697463CE
:101CC00068323A2025660D0A000000005409002001
:101CD00008B50121082000F00FFD0121102000F0BF
:101CE0000BFD4FF4E040ADF8000010208DF803002C
:101CF00003208DF8020069461248FFF761FA4FF49D
:101D00000050ADF8000010208DF8030003208DF87E
:101D1000020069460C48FFF753FA4FF48051094816
:101D2000FFF7D9FA4FF400510648FFF7D4FA4FF401
:101D300080410448FFF7CFFA4FF400510248FFF703
:101D4000CAFA08BD000C0140001001402DE9FE4F09
:101D500006460C461546A6601F480068642829DB25
:101D6000E168A868FEF748FA029021696868FEF702
:101D700043FA824621686869FEF73EFA019061687D
:101D80002869FEF739FA0090A168E868FEF734FA8E
:101D900083460099FEF7D8F981460199FEF7D4F9F8
:101DA00080465146FEF722FA07460299FEF71EFAD0
:101DB000606106E0A168616107480068401C06494F
:101DC000086060682060A06860602069E060616908
:101DD00021616069BDE8FE8F7800002000B589B000
:101DE00001210D2000F088FC0121022000F074FC8C
:101DF000C020ADF8200018208DF8230003208DF8B6
:101E0000220008A93848FFF7DBF90320ADF82000CD
:101E100018208DF8230003208DF8220008A93348EC
:101E2000FFF7CEF943F69720ADF818004720ADF83C
:101E300014000020ADF81600ADF81A0005A92C48D2
:101E400001F0F6FB6020ADF804000020ADF80A00B8
:101E5000ADF80C000120ADF8060001A9244801F0FE
:101E600033FA0821224801F084FA6020ADF804001A
:101E70000020ADF80A00ADF80C000120ADF8060016
:101E800001A91B4801F07EFA0821194801F0D9FA8E
:101E90006020ADF804000020ADF80A00ADF80C0099
:101EA0000120ADF8060001A9114801F0D7FA082178
:101EB0000F4801F030FB6020ADF804000020ADF8C1
:101EC0000A00ADF80C000120ADF8060001A9084891
:101ED00001F02AFB0821064801F071FB01210448AA
:101EE00001F046F909B000BD00080140000C0140B6
:101EF0000004004010B502E003A001F0E7FD00F08F
:101F000062F90028F8D010BD0D4D505536303530EF
:101F1000206E6F20636F6E6E6563742E2E2E0D0A19
:101F20000000000010B5FFF7E5FF80216B2000F0F6
:101F300035F96420FFF738F801216B2000F02EF905
:101F40000021382000F02AF918211B2000F026F982
:101F500008211C2000F022F902211A2000F01EF9AD
:101F60000021192000F01AF90221372000F016F99B
:101F700010BD00000FB52B480088A0B90020ADF8B7
:101F80000000ADF80200ADF80400274908602749B9
:101F900008602749086001202249088000230020AA
:101FA000108050809080BDF900001F4909680844E6
:101FB0001D490860BDF902001C49096808441B4915
:101FC0000860BDF90400C01A194909680844184995
:101FD000086014480088C8281DD1134800681149BA
:101FE000098890FBF1F000B21080104800680D499C
:101FF000098890FBF1F000B250800D480068094953
:10200000098890FBF1F000B290800020054908801B
:10201000012004B000BD03480088401C014908802D
:102020000020F6E760000020540000205800002047
:102030005C0000201CB5404840783F49097840EAE0
:1020400001203E490988401A00B23D4908803A48BB
:10205000C0783949897840EA012038494988401ACE
:1020600000B237494880344840793349097940EA19
:10207000012032498988401A00B231498880FEF730
:1020800041FD2D48407A2C49097A40EA01202D492A
:102090000988401A00B22C4908802748C07A26498E
:1020A000897A40EA012027494988401A00B2264926
:1020B00048802148407B2049097B40EA0120214992
:1020C0008988401A00B2204988802048007800F0B2
:1020D0000100B8B10846016800918088ADF804009D
:1020E0000023184ADDE90001FFF744FF50B117480B
:1020F000007820F00100154908700846007840F08B
:102100000200087011480078C0F3400098B10C48F4
:10211000016800918088ADF8040042F20403074A88
:10212000DDE90001FFF726FF28B10848007820F01C
:102130000200064908701CBDE001002026000020B6
:102140002C00002020000020320000203800002059
:1021500010B5034A0E213B2000F011F810BD00001D
:10216000E001002070B504460D462A462146D020E5
:10217000FFF730F908B1012070BD0020FCE770B511
:1021800004460D46164633462A462146D020FFF720
:1021900046F908B1012070BD0020FCE770B5044687
:1021A0000D462A462146D020FFF7FAF908B1012052
:1021B00070BD0020FCE708B569467520FFF7D2FF27
:1021C0009DF8000008BD10B5FFF7F5FF682801D1A4
:1021D000012010BD0020FCE730B5B0F5FA6F01DD3D
:1021E0004FF4FA60B1F5FA6F01DD4FF4FA61B2F520
:1021F000FA6F01DD4FF4FA62B3F5FA6F01DD4FF4C7
:10220000FA63B0F57A7F01DA4FF47A70B1F57A7F2C
:1022100001DA4FF47A71B2F57A7F01DA4FF47A720B
:10222000B3F57A7F01DA4FF47A73044D28802D1DBF
:1022300029802D1D2A802D1D2B8030BD34040040A7
:1022400070B5002100230F22C47804B3154C246814
:1022500004F4E064C4F5E064210AC1F10403CA4057
:10226000447804FA03F184781440214309010E4CA8
:102270000678A155047804F01F050124AC400578C8
:102280006D11AD0005F1E025C5F8004109E00478C5
:1022900004F01F050124AC40044D0678761145F882
:1022A000264070BD0CED00E000E400E080E100E0BD
:1022B00002490143024A1160704700000000FA051C
:1022C0000CED00E008B54FF4A060FFF7F1FF1E2011
:1022D0008DF8000001208DF801008DF802008DF8C6
:1022E00003006846FFF7ACFF25208DF800000220B0
:1022F0008DF8010001208DF802008DF8030068467A
:10230000FFF79EFF08208DF8000002208DF80100E5
:102310008DF8020001208DF803006846FFF790FF5A
:102320001C208DF8000000208DF8010003208DF89E
:10233000020001208DF803006846FFF781FF1B2093
:102340008DF8000000208DF8010002208DF80200B9
:1023500001208DF803006846FFF772FF27208DF8F3
:10236000000001208DF801008DF802008DF80300B7
:102370006846FFF765FF08BD2DE9F04104460E46AB
:10238000154629463046FDF731FFE060A169E06857
:10239000FDF72CFF6061E1682068FDF72DFFA0626A
:1023A00094F83800FEF729F980466168FDF724FFAC
:1023B00007462169FDF720FFE0626169A068FDF72B
:1023C0001BFF2063D4E90A01FDF7BEFE0746216B1F
:1023D000FDF7BAFE60632248B0F90800B0F5AF6FB0
:1023E00038DD1F48B0F9080040F63401884231DA80
:1023F0001B48B0F90400B4282CDB2846216AFEF7FC
:102400006BF907D3206A80F0004729463846FEF76B
:1024100063F903D2002084F838001DE0012084F81D
:102420003800D4E90310FDF78FFE2061616A20694E
:10243000FEF752F901D2606A2061606A80F00047BD
:1024400038462169FEF748F906D2606A80F00040FC
:10245000206101E000202061E068A061BDE8F0811A
:10246000700B002029482A490860002048608860D5
:102470002848294908602948486029488860002080
:1024800081F8380027480862274848620020204920
:1024900081F8380025480862254848621B482549CC
:1024A00008600020486088601A48234908601B487B
:1024B00048601B488860002081F83800194808628D
:1024C0001948486200201B4981F838001748086203
:1024D0001A4848620D481A49086000204860886020
:1024E0004FF07F501749086000204860886081F8ED
:1024F000380015480862154848620020104981F8E4
:1025000038000A4808620A48486270470000C04024
:10251000080A00206666663FBC0A002096430B3C12
:102520009A99993F000096430000C84300000C426E
:1025300000004843440A0020F80A002000007A44C2
:10254000800A0020340B002000001643000096444F
:1025500070B5FFF7FDFDFFF76DFD082251495248A8
:1025600002F084FC4F4908685049FDF745FE0446D7
:102570004F49FDF741FE4B49086048684B49FDF75C
:102580003BFE04464A49FDF737FE464948608868E5
:102590004649FDF731FE04464549FDF72DFE414908
:1025A00088604449B1F90000FEF71EF8044642492C
:1025B000FDF722FE414908603E49B1F90200FEF7ED
:1025C00013F804463C49FDF717FE3C494860394979
:1025D000B1F90400FEF708F804463749FDF70CFE90
:1025E000364988603648007800283CD0354908686C
:1025F0003549FDF701FE04462A4908683349FDF7CD
:10260000FBFD05462146FDF79FFD264908602D4943
:1026100048682D49FDF7F0FD0446224948682B49DA
:10262000FDF7EAFD05462146FDF78EFD1D49486090
:10263000244988682449FDF7DFFD04461949886864
:102640002249FDF7D9FD05462146FDF77DFD1549D7
:102650008860084600681B49086012484068486066
:102660001048806888600F480068194908600D4864
:10267000406848600B488068886008680021FEF761
:1026800021F80ED0124948680021FEF71BF808D047
:102690000F4988680021FEF715F802D001200D4986
:1026A000087070BD240900202C00002040DAFF389B
:1026B0000AE81C413200002045798B3A0C090020C1
:1026C0009C0000203C090020CDCCCC3D6666663FD6
:1026D000480900207C00002029B1064AD269024343
:1026E000044BDA6104E0034AD2698243014BDA61A8
:1026F000704700000010024029B1064A9269024367
:10270000044B9A6104E0034A92698243014B9A6147
:10271000704700000010024030B500210022002464
:1027200000232D4D6D6805F00C0121B1042905D061
:10273000082923D105E0294D056022E0274D0560D9
:102740001FE0254D6D6805F47012234D6D6805F48A
:102750008034022505EB92421CB9214D554305609A
:102760000BE01D4D6D6805F400351DB11C4D554342
:10277000056002E0194D5543056002E0174D056004
:1027800000BF00BF144D6D6805F0F0010909154D3B
:102790006B5C0568DD4045600F4D6D6805F4E061D8
:1027A000090A104D6B5C4568DD4085600A4D6D6817
:1027B00005F46051C90A0B4D6B5C4568DD40C5608E
:1027C000054D6D6805F44041890B074D6B5CC5688C
:1027D000B5FBF3F5056130BD0010024000127A0030
:1027E00000093D00B4010020C401002030B5244C94
:1027F000A488234D6D88641B23B2002B00DA1BB222
:1028000040F63404A34204DAB3F5617F01DD1D4CC8
:1028100023801D4CA4881C4D6D88641B20B20028A9
:1028200000DA00B240F63404A04204DAB0F5617F69
:1028300001DD144C6080154CA488144D6D88641B18
:1028400021B2002900DA09B240F63404A14204DAC8
:10285000B1F5617F01DD0B4CA1800D4CA4880C4DBE
:102860006D88641B22B2002A00DA12B240F63404EA
:10287000A24204DAB2F5617F01DD024CE28030BD94
:102880008C010020700B0020940100209C0100208E
:10289000A401002008B501210820FFF72DFF8020AA
:1028A000ADF8000004208DF8030069460148FEF7EA
:1028B00087FC08BD000C014008B501210820FFF786
:1028C0001BFF8020ADF8000010208DF803000320CE
:1028D0008DF8020069460248FEF772FC08BD000050
:1028E000000C014010B500F001F810BD0CB500203F
:1028F000019000903348006840F48030314908600E
:1029000000BF3048006800F4003000900198401C7F
:102910000190009818B90198B0F5A06FF1D129483D
:10292000006800F4003010B10120009001E00020A8
:1029300000900098012843D12348006840F010001F
:10294000214908600846006820F003000860084636
:10295000006840F0020008601A4840681949486061
:102960000846406848600846406840F48060486017
:102970000846406820F47C1048600846406840F4EF
:10298000E81048600846006840F08070086000BFAA
:102990000C48006800F000700028F9D00948406831
:1029A00020F00300074948600846406840F00200F4
:1029B000486000BF0348406800F00C000828F9D1C7
:1029C0000CBD000000100240002002402DE9FF5F16
:1029D00007460D46144629463846FDF73FFC03904E
:1029E00038480399FDF73AFC804602F023FB06467F
:1029F00031463046FDF700FC8346334802F03EF98D
:102A00004FF080410190FDF7F7FB82463146FDF71C
:102A1000F3FB81464FF07E51FDF796FB8046594609
:102A2000FDF792FB029000212846FDF74BFE01D8EE
:102A3000BDE8FF9F31463046FDF7DEFB8046029938
:102A4000FDF70CFCE0604FF08040E168FDF7D4FB3F
:102A50002061E16861614FF07E5020603146304670
:102A6000FDF7CAFB82464FF07E51FDF7BFFB814662
:102A70004FF08041FDF7C0FB80460299FDF7EEFB69
:102A8000606031463046FDF7B7FB01900E4802F01A
:102A9000F5F84FF080410090FDF7AEFB83463146DC
:102AA000FDF7AAFB82464FF07E51FDF7A2FB81465F
:102AB0000199FDF749FB80460299FDF7CFFBA06025
:102AC00000BFB5E7DB0F4940DB0F493F042808D1C1
:102AD0004FF0E021096941F004014FF0E02211615B
:102AE00007E04FF0E021096921F004014FF0E022F6
:102AF0001161704710B51348006840F0010011499A
:102B0000086008464068104908400E494860084679
:102B100000680E4908400B4908600846006820F428
:102B2000802008600846406820F4FE0048604FF4AA
:102B30001F008860FFF7D6FE4FF000600449086070
:102B400010BD0000001002400000FFF8FFFFF6FE7D
:102B500008ED00E010B5FFF7BBF8FFF7B3FBFEF799
:102B600001FA4FF4E13000F067FFFEF7D3FB00F00D
:102B700089FBFFF7D7F9FFF731F9FFF773FCFEF791
:102B80006FFAFDF7E7FF02F00FFB02F08DFC02F099
:102B90000DFE10BDF0B50C46154600220021068C36
:102BA0004FF6FE773E400684028B018C4FF60C7682
:102BB00032407E1C06EA03162E433243104EB042CA
:102BC0000ED0104EB0420BD0B0F1804F08D00E4E58
:102BD000B04205D00D4EB04202D00D4EB04206D1EB
:102BE0004FF6FD76314044F00106314305E04FF6E3
:102BF000F576314044F00106314302830184F0BD93
:102C0000002C014000340140000400400008004056
:102C1000000C0040F0B50C461546002200210026AD
:102C2000078C4FF6EF7C07EA0C070784028B018CB8
:102C30004FF6FF7707EA041640F6FF473A404FF693
:102C4000FF7707EA03373A434FF6FF7707EA05278E
:102C50003A43114FB8420ED0104FB8420BD0B0F1EA
:102C6000804F08D00E4FB84205D00E4FB84202D068
:102C70000D4FB84206D14FF6DF77394046F01007C6
:102C8000394305E04FF65F77394044F01007394388
:102C900002830184F0BD0000002C0140003401409B
:102CA0000004004000080040000C0040F0B50C4655
:102CB0001546002200210026078C4FF6FF6C07EA1C
:102CC0000C070784828B018C4FF6FF7707EA0426F6
:102CD0004FF60C773A404FF6FF7707EA03172F437A
:102CE0003A43114FB8420ED0104FB8420BD0B0F15A
:102CF000804F08D00E4FB84205D00E4FB84202D0D8
:102D00000D4FB84206D14FF6FF57394046F4807751
:102D1000394305E04FF2FF57394044F48077394397
:102D200082830184F0BD0000002C0140003401408A
:102D30000004004000080040000C0040F0B50C46C4
:102D40001546002200210026078C4EF6FF7C07EA7C
:102D50000C070784828B018C4FF6FF7707EA043655
:102D600040F6FF473A404FF6FF7707EA05273A4318
:102D70004FF6FF7707EA03373A43114FB8420ED0B8
:102D8000104FB8420BD0B0F1804F08D00E4FB84270
:102D900005D00E4FB84202D00D4FB84206D14DF6C5
:102DA000FF77394046F48057394305E047F6FF572F
:102DB000394044F48057394382830184F0BD0000D8
:102DC000002C014000340140000400400008004095
:102DD000000C004010B50221204800F0E2F918B3C1
:102DE0001F48407870B91D4800F0CEF91C49488052
:102DF0000020C8800221194800F0B2FA01201849C9
:102E000048700DE0154800F0BFF915498880002191
:102E1000124800F0A5FA00201149487001200870FE
:102E200002210E4800F0A1F90D4880880C4949881C
:102E3000401A40F6340188420FDA09488088084970
:102E40004988401AB0F5617F07DD0548808804494C
:102E50004988401A00B20349088110BD002C014086
:102E6000AC010020700B002010B50121880700F094
:102E700098F918B10121880700F077F90221480775
:102E800000F08FF920B35348407868B94FF0804084
:102E900000F07AF94F4948800221480700F060FAB3
:102EA00001204C4948700FE04FF0804000F06CF971
:102EB0004849888000214FF0804000F051FA0020FE
:102EC00044494870012008700221480700F04DF97C
:102ED0000421080700F065F920B33F48407868B93D
:102EE0004FF0804000F053F93B49488002214807E9
:102EF00000F09AFA0120384948700FE04FF0804006
:102F000000F045F93449888000214FF0804000F0FE
:102F10008BFA00203049487001200870042108070E
:102F200000F023F90821C80600F03BF920B32B4834
:102F3000407868B94FF0804000F02CF9274948806C
:102F40000221480700F0DAFA0120244948700FE016
:102F50004FF0804000F01EF92049888000214FF09A
:102F6000804000F0CBFA00201C4948700120087016
:102F70000821C80600F0F9F81021880600F011F9C0
:102F800020B31748407868B94FF0804000F005F949
:102F9000134948800221480700F004FB0120104932
:102FA00048700FE04FF0804000F0F7F80C4988803F
:102FB00000214FF0804000F0F5FA002008494870E9
:102FC000012008701021880600F0CFF8FFF70EFCF2
:102FD00010BD00008C010020940100209C01002005
:102FE000A401002070B501214C4800F0DAF8002857
:102FF0007BD04B480088401C4949088049480088DC
:10300000401C4849088048480088401C46490880C0
:1030100046480088401C4549088045480088401CB7
:103020004349088043480088401C42490880424880
:103030000088401C4049088039480088022802DB8B
:1030400000203749088037480088052805DB002024
:1030500034490880012039490870334800880A281B
:1030600005DB0020304908800120354908702F48D1
:103070000088142802DB00202C4908802C48008896
:10308000642836DB00202A49088001202D49087079
:103090002D48007820B92D480078401C2B49087035
:1030A0002A48007864281BDB29494868FDF7C3FAE1
:1030B00004464FF03332274BFDF7D0FA10D22449A3
:1030C0000868FDF7B8FA04464FF03332214BFDF79C
:1030D000C5FA05D200201D49087001201A49087060
:1030E00019480078012804D000E011E01AA000F08F
:1030F000EDFC10480088C82802DB00200D4908803C
:103100000D480088B0F5C87F02DB00200A4908801E
:103110000121024800F029F870BD000000080040BD
:103120000A0000200C0000200E00002010000020EB
:1031300012000020140000201600002002000020D1
:1031400001000020000000200700002008000020EF
:10315000000900203333D33F4C6F6164696E670D03
:103160000A000000CA4302827047CA4302827047C5
:1031700021B1028842F00102028004E002884FF689
:10318000FE731A40028070470146888E70470146E0
:10319000088F70470146888F70470146B1F840009C
:1031A000704730B50246002000230024158A05EA46
:1031B0000103958905EA010413B10CB1012000E077
:1031C000002030BD70B505460C46244885420ED01F
:1031D000234885420BD0B5F1804F08D02148854265
:1031E00005D02148854202D02048854200D100E028
:1031F00000BF208850B92389A28861882846FFF73C
:10320000C9FCE188284600F0E7F925E02088042879
:103210000AD12389A28861882846FFF7FBFCE18850
:10322000284600F0E2F917E0208808280AD123890F
:10323000A28861882846FFF739FDE188284600F01A
:10324000E1F909E02389A28861882846FFF776FD25
:10325000E188284600F0DFF970BD0000002C014035
:10326000003401400004004000080040000C004011
:103270001AB183890B43838102E083898B43838165
:10328000704700000EB501210420FFF725FA40F237
:10329000E730ADF804004720ADF800000020ADF89D
:1032A0000600ADF802006946064800F0C1F90122A7
:1032B00011460448FFF7DCFF01210248FFF758FFE1
:1032C0000EBD00000008004070B50024002200235D
:1032D000058C4FF6FE7635400584028C8388048B7E
:1032E0004FF68F752C40B51E2C400D882C43751E53
:1032F0002A400D892A434D882A43144DA8420BD0F9
:10330000134DA84208D0134DA84205D0124DA84233
:1033100002D0124DA84213D14FF6F7752A404D89BD
:103320002A434FF6FB752A408D882A434FF6FF65E6
:103330002B404FF6FF552B408D892B43CD892B43D6
:1033400083800483CD888586028470BD002C014073
:103350000034014000400140004401400048014069
:103360000A460021018C4FF6FD7319401143018478
:1033700070470A460021018B4FF6F773194011433D
:103380000183704770B5002400220023058C4FF69E
:10339000EF7635400584028C8388048B48F6FF75F0
:1033A0002C404FF6FF452C400D884FF6FF7606EA7D
:1033B00005252C434FF6DF752A400D8906EA0515D1
:1033C0002A434D8806EA05152A43154DA84202D026
:1033D000144DA8421DD14FF67F752A404D894FF6F6
:1033E000FF7606EA05152A434FF6BF752A408D88F9
:1033F00006EA05152A434FF6FF352B404FF2FF75BD
:103400002B408D8906EA85052B43CD8906EA850583
:103410002B4383800483CD880587028470BD000020
:10342000002C0140003401400A460021018C4FF677
:10343000DF7319404FF6FF7303EA02131943018447
:1034400070470A460021018B4FF2FF7319404FF677
:10345000FF7303EA022319430183704770B5002408
:1034600000220023058C4FF6FF6635400584028C50
:103470008388848B4FF68F752C404FF6FC752C405B
:103480000D882C434FF6FF552A400D894FF6FF76E5
:1034900006EA05252A434D8806EA05252A43154DE7
:1034A000A84202D0144DA8421DD14FF2FF752A4008
:1034B0004D894FF6FF7606EA05252A434FF6FF357C
:1034C0002A408D8806EA05252A434EF6FF752B40D3
:1034D0004DF6FF752B408D8906EA05152B43CD89E6
:1034E00006EA05152B4383808483CD888587028473
:1034F00070BD0000002C0140003401400A4600214C
:10350000018C4FF6FF5319404FF6FF7303EA022375
:103510001943018470470A460021818B4FF6F773E7
:10352000194011438183704770B5002200230024A5
:10353000058C4EF6FF7635400584038C8488828B9B
:1035400048F6FF752A404FF6FF452A400D884FF692
:10355000FF7606EA05252A434DF6FF752B400D89B7
:1035600006EA05352B434D8806EA05352B430B4DFE
:10357000A84202D00A4DA84208D14BF6FF752C4054
:103580008D894FF6FF7606EA85152C438480828369
:10359000CD88A0F84050038470BD0000002C01408D
:1035A000003401400A460021018C4DF6FF7319409A
:1035B0004FF6FF7303EA02331943018470470A464A
:1035C0000021818B4FF2FF7319404FF6FF7303EA1E
:1035D0000223194381837047028B4FF6F3731A401D
:1035E0000283028B0A4302837047028B4FF2FF3340
:1035F0001A400283028B4FF6FF7303EA01231A433A
:1036000002837047828B4FF6F3731A408283828B5A
:103610000A4382837047828B4FF2FF331A408283C2
:10362000828B4FF6FF7303EA01231A4382837047AC
:10363000002202881D4B98420ED01D4B98420BD0A1
:10364000B0F1804F08D01B4B984205D01A4B9842DE
:1036500002D01A4B984204D14FF68F731A404B8810
:103660001A43174B984207D0164B984204D04FF696
:10367000FF431A40CB881A4302808B8883850B88CE
:1036800003850A4B98420BD0094B984208D00E4B49
:10369000984205D00D4B984202D00D4B984201D173
:1036A0000B7A03860123838270470000002C0140BF
:1036B000003401400004004000080040000C0040BD
:1036C0000010004000140040004001400044014050
:1036D0000048014010B55348007880B1002051499E
:1036E0000870FEF735FF504A50495148FDF77CFFFE
:1036F00050480378504A4E494B48FDF77FFA4F48EF
:10370000007800287ED000204C4908704C48007892
:1037100038BB4C48006840F480504A49086008466D
:10372000006840F4005008600846006840F480409B
:1037300008604548007848B1002043490870414876
:10374000006840F480503F4908600AE001203E498B
:1037500008703C48001F006840F480503949091F38
:1037600008603A480078F8B135480078012827D138
:103770003448006840F480503249086008460068C8
:1037800040F4005008600846006840F4804008603B
:103790002D48007848B100202B490870294800685E
:1037A00040F40050274908600AE0012026490870CB
:1037B0002448001F006840F400502249091F086097
:1037C00022480078F0B91E480078012829D11D4808
:1037D000006840F480501B4908600846006840F4C7
:1037E000005008600846006840F4804008601648B1
:1037F000007858B10020144908701248006840F45D
:10380000804000E00DE00F4908600AE001200E4909
:1038100008700C48001F006840F480400949091FE7
:10382000086010BD010000200009002024090020CC
:103830000C09002079010020700B002000000020FE
:1038400007000020140C0140180000200600002092
:1038500010B500BF40F225510B4800F032F860B9B6
:1038600040F22441084800F02CF830B106480088A6
:10387000C4B20548001D0088C4B240F22551024878
:1038800000F004F810BD00000038014010B500221F
:10389000002340F66A14A14200D100BF0A1201249D
:1038A0009440A3B2DC43048010BD21B1828942F46C
:1038B0000052828104E082894DF6FF731A408281B2
:1038C000704770B50246002400230025002040F612
:1038D0006A16B14200D100BFC1F3421501F01F03C7
:1038E000012606FA03F3012D02D19689334006E042
:1038F000022D02D1168A334001E0968A33400C1221
:10390000012606FA04F41688344013B10CB10120E4
:1039100000E0002070BDF0B503460024002600251D
:10392000002040F66A17B94200D100BF1846C1F323
:10393000421401F01F06012707FA06F5012C01D1F8
:103940000C3004E0022C01D1103000E014301AB128
:1039500007682F43076002E00768AF430760F0BDC8
:103960002DE9F04786B005460E460024A24600BF6A
:10397000A1460027B08900B100BF2F462C8A4CF623
:10398000FF700440F08804432C82AC894EF6F3109B
:103990000440B08831890843718908430443AC81ED
:1039A000AC8A4FF6FF400440B0890443AC8201A8C2
:1039B000FEF7B2FE1F48874202D1DDF810A001E0F9
:1039C000DDF80CA0A88900F4004040B10AEBCA0061
:1039D00000EB0A1031684900B0FBF1F807E00AEB90
:1039E000CA0000EB0A1031688900B0FBF1F86420CE
:1039F000B8FBF0F004012009642101FB1089A889BB
:103A000000F4004040B1322000EBC900B0FBF1F0FF
:103A100000F00700044308E0322000EB09106421A5
:103A2000B0FBF1F000F00F0004432C8106B0BDE8BC
:103A3000F08700000038014010B586B0044601212F
:103A400044F20C00FEF758FE01218804FEF744FE04
:103A50004FF40070ADF8140018208DF81700032003
:103A60008DF8160005A91748FDF7AAFB4FF48060F2
:103A7000ADF8140004208DF8170003208DF816000F
:103A800005A91048FDF79CFB0820ADF80E000020AA
:103A9000ADF80C000194ADF80A00ADF80800ADF8DF
:103AA000100001A90848FFF75BFF012240F22551F1
:103AB0000548FFF730FF01210348FFF7F6FE06B087
:103AC00010BD000000080140003801400FB4054B54
:103AD00010B503A9044A029800F030FA10BC5DF852
:103AE00014FB0000F94D000888010020490050EA4D
:103AF000C12018BF04204A0D18BF40F0010040F259
:103B0000FF72B2EB515F08BF40F00200012808BF0E
:103B1000052070474100080218BF04200A0E18BF94
:103B200040F001004FF07F4232EA010108BF40F04F
:103B30000200012808BF052070472DE9F0414F1E03
:103B400000EBC7010446D1E9000115461E4637F0D7
:103B500006020DD02A463346FCF765FC7F1E04EBB7
:103B6000C703D3E90023FCF7B7FB37F00602F1D116
:103B7000022F25D0042F13D0062F18BFBDE8F081E7
:103B80002A463346FCF74FFCD4E90A23FCF7A4FB92
:103B90002A463346FCF747FCD4E90823FCF79CFB94
:103BA0002A463346FCF73FFCD4E90623FCF794FB96
:103BB0002A463346FCF737FCD4E90423FCF78CFB98
:103BC0002A463346FCF72FFCD4E90223FCF784FB9A
:103BD0002A463346FCF727FCD4E90023BDE8F04130
:103BE000FCF77ABB0122FCF79BBEFCF775BB0022F9
:103BF000134610461146FCF788BC0000024A00201C
:103C00001107FCF78DBE000001FDFFFF0121FCF74D
:103C1000F1BE00210846FCF721BB6FF05E010807EA
:103C2000FCF7E8BE2DE9F04D0D4614464FF07F41FC
:103C3000B1EB440F9EBF4FF0FF312960BDE8F08D1E
:103C40004FF0004040EA0421C4F3C750783810F028
:103C50001F024A4B4FEA601CC2F120067B44C4F3AA
:103C6000C750A0F178004FEA601003EB800053F8D2
:103C70002C3008BFD0E901C612D0D0F804C0934060
:103C80002CFA06F73B4387680CFA02FC27FA06F881
:103C9000C06807FA02F2F0404CEA080C42EA00065B
:103CA000A3FB0132ACFB01C0A6FB016101EB0C06DA
:103CB0008E4234BF4FF0010C4FF0000CC11861442C
:103CC000BCF1000F02D0814202D903E0814201D24F
:103CD000012000E00020104400F120024FEA921879
:103CE0008006CA0C40EA42304F03C5F80080FCF75A
:103CF0007BFC82463846FCF780FC6FF01201FCF733
:103D000079FE07463046FCF778FC6FF02501FCF79A
:103D100071FE834639465046FCF716FA5946FCF7C1
:103D200013FA00F500666FF30B0651463046FCF7B8
:103D30005DFA3946FCF75AFA5946FCF75AFA104927
:103D4000FCF75AFA07460F493046FCF755FA394650
:103D5000FCF7FAF907460C493046FCF74DFA3946AC
:103D6000FCF7F2F914F0004F08BFBDE8F08DC8F180
:103D7000805180F000402960BDE8F08DD01C00002B
:103D8000DB0FC92F22AAFD290000C92F02E008C8B5
:103D9000121F08C1002AFAD170477047002001E0C5
:103DA00001C1121F002AFBD17047000001490860C1
:103DB00070470000DC0100202DE9FF5F82B0002188
:103DC000DDE90430020DDDF840B0034318D044F6BD
:103DD0001050A2F2FF3242431514119801281FD04F
:103DE000A5EB0B00401C5FEA000A4FF000064E4FA7
:103DF000DFF83891B046504615D5CAF1000413E0FB
:103E0000119801244AA3012801D16FEA0B010298FD
:103E1000119AC0E90031C0E9024206B0BDE8F09F46
:103E2000CBF10000DFE704460021404A491842EB8D
:103E30000450CDE9001012E0E00707D032463B46BF
:103E400040464946FCF7EFFA8046894632463B46F3
:103E500010461946FCF7E7FA06460F466410002C98
:103E6000EAD1DDE90401DDE90023BAF1000F06DA49
:103E7000FCF7D9FA42464B46FCF7D5FA05E0FCF7C9
:103E800044FB42464B46FCF740FB04460E460022EC
:103E9000284BFCF775FD03D84FF0FF30014607E0D3
:103EA0000022254B20463146FCF716FAFCF74FFD61
:103EB000102409E0002C0ADB0A220023FCF72CFC6A
:103EC000039B30321A55641E50EA0102F2D1641C81
:103ED000039AC4F111031444119A012A03D0012258
:103EE00008430DD10AE0084304D000204FF0110B25
:103EF000119072E7A3EB0B056D1E0DE05B4504DD31
:103F00004FF0000205F1010504E003DA4FF0000272
:103F1000A5F10105002AECD002981199C0E90231FF
:103F2000C0E9004579E70000000014400000F03FC0
:103F3000300000000000F0430000E03F2DE9FF4F9B
:103F400095B09B468946064600250FE2252877D185
:103F500000242746F84A0121059400E0044316F89E
:103F6000013F203B01FA03F01042F7D130782A28B4
:103F700011D06FF02F033078A0F13002092A16D843
:103F8000059A44F0020402EB820203EB4202104461
:103F9000761C0590EFE759F8042B0592002A03DA06
:103FA000504244F40054059044F00204761C3078EA
:103FB0002E2816D116F8010F44F004042A280DD03B
:103FC0006FF02F023078A0F13003092B09D807EBEE
:103FD000870302EB4303C718761CF3E759F8047B09
:103FE000761C30786C280FD006DC4C2817D0682857
:103FF0000DD06A2814D104E0742810D07A280FD18B
:104000000DE044F400140AE044F4801401E044F4A8
:1040100040147278824202D104F58014761C761C1A
:10402000307866280BD013DC582877D009DC0028BC
:1040300075D04528F6D04628F4D047281AD19DE1FE
:1040400018E0632835D0642879D0652812D195E12D
:10405000702873D008DC6728F1D069286FD06E28EB
:104060000DD06F2806D1B5E073282CD0752875D0F7
:10407000782874D05A46179990476D1C75E1C4F39F
:104080000250022809D003280DD0D9F800100428C6
:104090000DD00D6009F1040967E1D9F80010EA17A5
:1040A000C1E90052F6E7D9F800100D80F2E70D7073
:1040B000F0E719F8041B8DF8001000208DF80100BE
:1040C000EA46012003E059F804AB4FF0FF306107E6
:1040D0004FF0000102D40DE008F101018846B94219
:1040E0000FDA8045F8DB1AF808100029F4D108E04F
:1040F00008F1010188468142FADB1AF8081000290C
:10410000F6D105985B46A0EB080721463846179A7A
:1041100000F094FA284400EB080507E04DE029E19F
:104120000DE01AF8010B5A4617999047B8F10108AB
:10413000F7D25B4621463846179A13E142E00A223D
:104140000092C4F302524FF0000A022A08D059F834
:1041500004CB032A4FEAEC710AD00DE029E02AE0F3
:1041600009F1070121F00702F2E802C1914609E0D6
:104170000FFA8CFC4FEAEC71042A03D14FFA8CFC45
:104180004FEAEC71002907DA0A460021DCF1000C45
:1041900061EB02012D2202E0220504D52B228DF8CD
:1041A0000420012203E0E20701D02022F7E7904635
:1041B00059E00A2102E010220DE010214FF0000A20
:1041C00000910BE010224FF0000A44F0040408278D
:1041D000009203E008224FF0000A0092C4F302525A
:1041E000022A05D059F804CB0021032A08D009E09F
:1041F00009F1070121F00702F2E802C1914605E04A
:104200001FFA8CFC042A01D10CF0FF0C4FF00008BF
:10421000220728D5702806D0009B83F0100353EAAC
:104220000A0305D00EE040228DF80420012208E0A8
:104230005CEA010206D030228DF804208DF80500DA
:1042400002229046009B83F0080353EA0A030AD136
:104250005CEA010201D1620705D530228DF8042005
:104260004FF001087F1E582804D034A003900EA8F8
:1042700002900DE036A0F9E753466046009AFCF73D
:104280004BFA84460398825C0298401E02900270AA
:104290005CEA0100F0D1029806A9081A00F1200A90
:1042A000600702D524F4803400E00127574502DD81
:1042B000A7EB0A0000E0002000EB0A01009005983F
:1042C0004144401A0590E00306D45B462146179A04
:1042D000059800F0B3F90544002706E001A85A4606
:1042E000C05D179990476D1C7F1C4745F6DBE003C6
:1042F0000CD55B462146179A059800F09FF90544B6
:1043000004E030205A46179990476D1C0099481ECA
:1043100000900029F5DC08E0029802995A460078DE
:10432000491C0291179990476D1CBAF10001AAF13E
:10433000010AF1DC65E10000092801003031323367
:1043400034353637383961626364656600000000D1
:1043500030313233343536373839414243444546BB
:104360000000000000F058F90544761C3078002861
:104370007FF4ECAD19B02846BDE8F08F620700D499
:10438000062709F1070222F0070CFCE80223E146A8
:1043900003F000485FEA080C02D00FF2702C0DE029
:1043A0005FEA045C02D50FF2682C07E05FEAC47C88
:1043B00002D00FF2602C01E0AFF2700C4FF0FF382A
:1043C00023F00043CDF850C065280CD006DC45280A
:1043D00009D046281DD047283DD13DE0662818D099
:1043E00067287ED138E00021112F01DB112000E089
:1043F000781CCDE9000106A90EA8FFF7DDFCDDE978
:104400000F010E9A03910021009207F1010A049115
:104410004DE04FF000400097CDE9011006A90EA82D
:10442000FFF7CAFCDDE90F0203920E9B11990022EF
:10443000DDF80CA00093049211B9791C00EB010A7D
:10444000B7EB0A0004D4C0F1FF3007F1010A049071
:10445000AAEB0700019044E0012F00DA01270021B8
:10446000112F01DD112000E03846CDE9000106A939
:104470000EA8FFF7A1FCDDE90F010E9A03910021C0
:1044800004910092BA4621070CD40399514500DAF1
:104490008A46BAF1010F05DD009AAAF10101515CCB
:1044A000302908D0B84202DA10F1040F06DA0121EF
:1044B000CDE9011015E0AAF10101E9E7002805DCCA
:1044C000049901440491AAEB000102E0411C51450A
:1044D00000DD8A460499401A401C01904FF00040CC
:1044E0000290200704D40198504501DBCDF80480E8
:1044F00000208DF84F0002980DF14F07B0F1004FEA
:1045000025D02B200E9002984FF0020800280CDADC
:10451000404202902D200E9007E00A210298FCF7FD
:10452000E5F83031029007F8011DB8F10001A8F15B
:104530000108F2DC02980028EFD1791E0E9808706D
:10454000307800F0200040F0450007F8020D12A876
:10455000C01B00F107081498007800B1012000EB9F
:104560000A01019801EBE07105984144401A401E90
:104570000590E00306D45B462146179A059800F0A3
:104580005DF805441498007818B15A461799904779
:104590006D1CE00324D55B462146179A059800F070
:1045A0004DF805441CE00498002807DBDDE9030111
:1045B000884203DD0098405C179901E0179930208C
:1045C0005A469047049805F10105401C0490019853
:1045D000401E019004D12E205A46179990476D1C19
:1045E000BAF10001AAF1010ADDDC05E017F8010BC0
:1045F0005A46179990476D1CB8F10001A8F10108BF
:10460000F4DC5B462146179A0598ABE62D000000C6
:104610002B000000200000002DE9F0410446002599
:104620001E461746880404D405E039462020B047CA
:104630006D1C641EF9D52846BDE8F0812DE9F041D6
:10464000044600251E469046C80301D5302700E0E9
:104650002027880404D505E041463846B0476D1C44
:10466000641EF9D52846BDE8F08100002DE9F04D23
:104670008D4F21F0004A86B005460C46BA452ADB2C
:10468000AAEB070028430AD08848824501DC1AD1EA
:10469000CDB106B02846BDE8F04DFFF7A3BA844A75
:1046A000844B2846FBF7BFFE07460E46824A834BE3
:1046B00028462146FBF7B7FE06B03A463346BDE82A
:1046C000F04DFBF709BE0120FFF770FB06B0BDE817
:1046D000F04DFFF78CBA7A48824542DABAF1795F39
:1046E0000BDA2846FFF702FA042808BFFFF786FA1C
:1046F000284606B02146BDE8F08D2A460B461046F6
:10470000FBF791FE834602466E480E460B46062195
:104710007844FFF712FA5A463346FBF784FE804688
:1047200069488A465A46334604217844FFF705FA19
:104730005A463346FBF777FE00223B46FBF7CCFD9B
:1047400002460B4640465146FBF7DFFE2A4623460B
:10475000FBF769FE06B02A462346BDE8F04DFBF79D
:10476000BBBD284624F0004100223D463B46FBF7F6
:1047700057FE4FF0FF32FCF7D3F806460246534887
:104780000F460B4606217844FFF7D7F932463B46E1
:10479000FBF749FECDE900014D4832463B46042176
:1047A0007844FFF7CAF932463B46FBF73CFE00224D
:1047B0002B46FBF791FD834602913046394600F0C7
:1047C00013FC804643480D46504517DCDDE90001E7
:1047D0005A46029BFBF799FE42462B46FBF723FE07
:1047E00042462B46FBF778FD0122FCF799F8304A48
:1047F000304BFBF712FE304A304B4CE04FF0000AD2
:1048000052460B464046FBF767FDCDE90310524682
:104810002B4610461946FBF706FE32463B46FBF791
:10482000FFFDDDE90332FBF770FE06460F46DDE9CA
:1048300000015A46029BFBF768FE83460091012265
:1048400030463946FCF76CF8194A1A4BFBF7E8FD7D
:1048500006460F46012240462946FCF761F85A46B3
:10486000009BFBF7E0FD32463B46FBF7D6FD0646D4
:104870000F46012250462946FCF752F80E4DDFF84C
:1048800058802A464346FBF7CBFD32463B46FBF7B2
:10489000C7FD2A464346FBF7C3FD002CD8BF81F075
:1048A000004106B0BDE8F08D0000F03F0000F07F51
:1048B000075C143326A6913C182D4454FB21F93F84
:1048C0000000E03F2C11000042110000B610000073
:1048D000CC1000003333EF3FFB21E93F2DE9F84FC7
:1048E00004460D4621F0004000917349814211DCDD
:1048F0007249884201DC06D12CB120462946BDE828
:10490000F84FFFF76FB96E48002DCCBF6D496E4967
:10491000BDE8F88F6D49814211DD6D498142D8BFF4
:104920004FF0FF366DDD20462946FFF7DFF80428FB
:1049300008BFFFF763F920462946BDE8F88F6549AF
:10494000654F25F00045814233DD6449814219DD20
:10495000002632464FF0804320462946FBF7BCFC38
:1049600080468A46012220462946FBF7D9FF0022CD
:104970003B46FBF752FD42465346FBF7C6FD044655
:104980000D463EE001260022BA463B462046294617
:10499000FBF7A2FC80460F460022534620462946DC
:1049A000FBF73BFD42463B46FBF7AFFD04460D4699
:1049B00027E04B4981421BDDDFF828A102260022B7
:1049C000534620462946FBF72EFD00223B46FBF7C7
:1049D00083FC80460F460022534620462946FBF7BB
:1049E0001CFD42463B46FBF790FD04460D4608E0A1
:1049F000032622462B4600203B49FBF786FD044652
:104A00000D4622462B4610461946FBF70CFD8B46F9
:104A1000824602460B46FBF706FD07460246334830
:104A200088460B4606217844FFF787F852465B46D6
:104A3000FBF7F9FC82462E488B463A464346052151
:104A40007844FFF77AF83A464346FBF7ECFC024617
:104A50000B46002E504659460CDAFBF73DFC224629
:104A60002B46FBF7E0FC01B022462B46BDE8F04F99
:104A7000FBF7D6BCFBF730FC22462B46FBF7D3FCFA
:104A80001C4A7A4402EBC603D3E90023FBF7C5FCBA
:104A900022462B46FBF7C1FC174A7A4402EBC603B9
:104AA000D3E90023FBF7BCFC009A002AB8BF81F0D1
:104AB0000041BDE8F88F0000000010440000F07FC6
:104AC000182D4454FB21F93FFB21F9BF0000DC3FC6
:104AD0000000203E0000F33F0000F03F0000E63FF2
:104AE000008003400000F83F0000F0BFCE0E000041
:104AF0008C0E00002A0E0000F20D00002DE9F04D92
:104B00009446CCF1000423F000464CEA0404524FD2
:104B100046EAD4749A46884621F00042BC4206D840
:104B2000454240EA050442EAD474BC4204D9BDE8D7
:104B3000F04D6246FFF759B8AAF14055A5F17F65DF
:104B400055EA0C040BD0022404EAAA74434DDFF8A2
:104B500010E144EAD87452EA000B04D00CE0BDE83E
:104B6000F04DFFF7BBBE002C14BF012CBDE8F08D4B
:104B7000022C30D0032C32D056EA0C0B0AD0BE42A5
:104B800020D1BA4209D126F0804622F08042334635
:104B9000114617E000291ADB25E0DFF8C8B0FB4416
:104BA000002C04BFDBE90001BDE8F08D012C02BF41
:104BB000DBE9000181F00041BDE8F08D022C0AD054
:104BC000032C0CD0BA4212D1B8F1000F0BDA2348F3
:104BD0002549BDE8F08D28462449BDE8F08D2846DA
:104BE0007146BDE8F08D1D482149BDE8F08D921B4E
:104BF00012153C2AC4BF19481D490EDCBAF1000F3A
:104C0000BEBF12F13C0F0020014606DB6246FBF7F7
:104C10007CFC21F00041FFF761FE002C08BFBDE8DD
:104C2000F08D012C04BF81F00041BDE8F08D114AE8
:104C3000114B022C07D0FBF7F0FB2A46BDE8F04DE4
:104C40000A4BFBF7EABBFBF7E8FB2A46BDE8F04D51
:104C5000064BFBF7E5BB00000000F07F182D445425
:104C6000FB2109C0860D0000FB21F9BFFB21094093
:104C7000FB21F93F075C143326A6A13C2DE9F8433C
:104C8000044602464F486946B0EB420F09D94FF03F
:104C9000E640B0EB420F94BF00204FF0FF30009091
:104CA00030E0494B22F00040834271D94749204609
:104CB000FBF7A2FAFBF7B9FD8046FBF7A3FC00F077
:104CC0000300009042494046FBF796FA05464149E9
:104CD0004046FBF791FA06463F494046FBF78CFAFF
:104CE00007463E494046FBF787FA2146FBF781FA23
:104CF0003946FBF77BFA3146FBF778FA2946FBF792
:104D000075FA04462546009C002C45DB294614F024
:104D1000010F08461CD0FBF76FFA06463049FBF737
:104D20006BFA3049FBF765FA3146FBF765FA2E4915
:104D3000FBF70AFA3146FBF75FFA2946FBF75CFA04
:104D40002946FBF701FA14F0020F1CD0BDE8F883E6
:104D5000FBF752FA05462549FBF74EFA2449FBF7C3
:104D6000F3F92946FBF748FA2249FBF7EDF9294602
:104D7000FBF742FA4FF07E51FBF7E6F914F0020F11
:104D800008BFBDE8F88380F00040BDE8F883FFE786
:104D90001046FEF747FFB4E76800B0F17F4F3CBF15
:104DA0004FF07E50BDE8F88307D14FF00100FEF7C9
:104DB000FDFFBDE8F843FEF72CBF2846BDE8F843E9
:104DC000FEF724BFB61F927E490E494683F9223F63
:104DD0001A61342C0020A23300A0FD390000C93F25
:104DE000336D4C39DA82083CA0AA2ABEB93AB2BA6D
:104DF000CA9F2A3DDDFFFFBE00BF054A128802F0B0
:104E00004002002AF9D0C2B2014B1B1D1A80704724
:104E1000003801402DE9F04704464FF07C51204610
:104E2000FBF7EAF9814625462E460C48A0EB6606BC
:104E3000354629464846FBF7DFF982462946FBF707
:104E4000DBF980464FF07F51FBF7D3F9074629463F
:104E5000FBF7D2F905462846BDE8F087865A375F4A
:104E6000FDF778FE01E0FEF735FCFCE72DE9FE4F8B
:104E700004460F4615464FF00008C1460020029038
:104E800055480068A84236DAB4F90000FBF7ACFBDD
:104E900051490A680968491C4F4B19604F4941F84C
:104EA0002200B4F90200FBF79FFB4B490A6809682E
:104EB000491C494B19604A4941F82200B4F90400E1
:104EC000FBF792FB44490A680968491C424B196088
:104ED000444941F82200B4F90000FBF785FB804605
:104EE000B4F90200FBF780FB8146B4F90400FBF73C
:104EF0007BFB029067E00026B246B346002001909B
:104F0000681E82003549091D081FFBF70BF9681E52
:104F100082003349091D081FFBF704F9681E82004F
:104F20003049091D081FFBF7FDF8B4F90000FBF735
:104F30005BFB691E294A42F82100B4F90200FBF725
:104F400053FB691E264A42F82100B4F90400FBF71E
:104F50004BFB691E234A42F8210000BF15E01F48A1
:104F600050F826105046FBF7EFF882461C4850F8E0
:104F700026105846FBF7E8F883461A4850F82610E2
:104F80000198FBF7E1F80190761CAE42E7DB28467A
:104F9000FBF733FB014600905046FBF75FF9804674
:104FA0002846FBF72AFB014600905846FBF756F9C6
:104FB00081462846FBF721FB014600900198FBF74C
:104FC0004DF9029000BFC7F80080C7F8049002981E
:104FD000B860BDE8FE8F00006C0000208006002055
:104FE000D0060020200700202DE9F04106460F469C
:104FF000FBF70CFD041E0D4618BF0120284320F0CE
:105000000040C0F17F6000F1E040C00F0ED0301CC6
:1050100018BF0120384320F00040C0F17F6000F14C
:10502000E040C00F04BF0120FEF7C0FE2046294625
:10503000BDE8F0812DE9F843044602464C48694634
:10504000B0EB420F09D94FF0E640B0EB420F94BFEE
:1050500000204FF0FF30009030E0464B22F000403F
:10506000834265D944492046FBF7C6F8FBF7DDFBD0
:105070008046FBF7C7FA00F0030000903F49404626
:10508000FBF7BAF805463E494046FBF7B5F8064639
:105090003C494046FBF7B0F807463B494046FBF722
:1050A000ABF82146FBF7A5F83946FBF79FF83146E8
:1050B000FBF79CF82946FBF799F80446009D002D64
:1050C0003ADB21460846FBF797F806462F49FBF7DF
:1050D00093F82F49FBF738F83146FBF78DF82D4947
:1050E000FBF732F83146FBF787F82B49FBF72CF832
:1050F0003146FBF781F82949FBF726F83146FBF7E3
:105100007BF82749FBF720F83146FBF775F8214675
:10511000FBF772F82146FBF717F815F0010F08BFEF
:10512000BDE8F8830146BDE8F8431E48FBF796B892
:105130001046FEF777FDC0E76000B0F17F4F09D25F
:105140002046FEF7E7FC042808BFFEF766FD204670
:10515000BDE8F88306D10120FEF728FEBDE8F8433C
:10516000FEF757BD2046BDE8F843FEF74FBD0000EF
:10517000B61F927E490E494683F9223F1A61342CAC
:105180000020A23300A0FD390000C93FBBE9223C4A
:105190000C6D063B8A76CE3CACB5593D35A1083E38
:1051A00029AAAA3E000080BF0F481049104A03C236
:1051B00000211048104AC2E9001010491048114A55
:1051C000C2E900100020104A106050600F4A1060C1
:1051D00050600F4A1060506000219160D1601161F1
:1051E00051619161D16170472D431CEBE2360A3F5A
:1051F000A000002000002440A80000208F8B8A42DD
:105200009D034138B0000020B8000020C0000020FD
:10521000780900202DE9F04F8BB006460F469046E6
:105220009946DDE9144596480CC840464946FBF7C7
:10523000F4F8944A03C293480CC820462946FBF769
:10524000F2F8824690480CC85046FBF745F88E4A63
:1052500003C28E49D1E906A3524620462946FBF7F0
:10526000E2F8CDE900018948D0E902A3524600984E
:10527000FBF7D3F8CDE902018448D0E904A35246F4
:105280000298FBF7CAF8CDE9040181480CC80498DC
:10529000FBF722F822462B46CDE90601FBF7C3F8BF
:1052A000CDE908017948D0E900A352460898FBF7F8
:1052B00013F8764A03C27548D0E906A35246204641
:1052C0002946FBF7B0F8CDE908017048D0E902A300
:1052D00052460898FBF7A4F86C4AC2E9020111464D
:1052E000D1E906A3524620462946FBF79CF8CDE9B2
:1052F00008016648D0E904A352460898FBF790F8E5
:10530000624AC2E9040122462B46624903C9FBF7FF
:105310008AF882460B465D48C16980695246CDE9EC
:105320000801FAF7D9FF594AC2E906011046D0E947
:1053300000A159480CC85046FAF7CEFF574A03C29D
:105340005248D0E900A155480CC85046FBF7DDF89B
:10535000534A03C24D49D1E904A150480CC85046F4
:10536000FBF7D3F84E4AC2E9020147480CC8304661
:105370003946FBF752F84B4A03C24948D0E900A12D
:1053800048480CC85046FBF74EF8CDE908013E48A6
:105390000CC80898FAF7A0FF3B4A03C24048D0E97E
:1053A00002A140480CC85046FBF73DF8CDE9080182
:1053B00033480CC80898FAF78FFF314A03C23349C3
:1053C0003748D1E900A303C85246CDE90601FBF7EF
:1053D0002AF8CDE908012D48D0E900A352460898E3
:1053E000FBF71EF8294A03C228492D48D1E902A338
:1053F00003C85246CDE90601FBF715F8CDE90801CF
:105400002248D0E902A352460898FBF709F81F4A40
:10541000C2E902011046D0E900A32148C1688068B2
:105420005246CDE90601FAF7FEFFCDE9080117491A
:10543000D1E904A352460999FAF7F2FF134AC2E9E7
:1054400004011146D1E90201CDE906011449D1E96F
:1054500002A102465046079BFAF7E5FFCDE9080195
:105460000A49D1E906A352460999FAF7D9FF074A32
:10547000C2E90601044903C90BB0BDE8F08F000082
:10548000C0000020C8000020B800002078090020DB
:10549000A0000020A8000020B0000020D8000020BC
:1054A00098090020D00000200F481049104A03C27C
:1054B00010491148114AC2E9001011491148124A15
:1054C000C2E900100020114A10605060104A1060BC
:1054D0005060104A1060506000219160D1601161ED
:1054E00051619161D1617047FCA9F1D24D62403F99
:1054F000E00000209A9999999999B93FE800002015
:1055000095D626E80B2E113EF0000020F800002072
:10551000C0000020A80900202DE9F04F8BB00646FE
:105520000F4690469946DDE9144596480CC840461A
:105530004946FAF772FF944A03C293480CC82046C2
:105540002946FAF770FF824690480CC85046FAF791
:10555000C3FE8E4A03C28E49D1E906A352462046B5
:105560002946FAF760FFCDE900018948D0E902A396
:1055700052460098FAF751FFCDE902018448D0E97C
:1055800004A352460298FAF748FFCDE90401814886
:105590000CC80498FAF7A0FE22462B46CDE9060176
:1055A000FAF741FFCDE908017948D0E900A3524656
:1055B0000898FAF791FE764A03C27548D0E906A327
:1055C000524620462946FAF72EFFCDE908017048D9
:1055D000D0E902A352460898FAF722FF6C4AC2E9C2
:1055E00002011146D1E906A3524620462946FAF7A0
:1055F0001AFFCDE908016648D0E904A3524608988D
:10560000FAF70EFF624AC2E9040122462B466249BC
:1056100003C9FAF708FF82460B465D48C1698069F5
:105620005246CDE90801FAF757FE594AC2E9060188
:105630001046D0E900A159480CC85046FAF74CFE74
:10564000574A03C25248D0E900A155480CC85046F9
:10565000FAF75BFF534A03C24D49D1E904A1504810
:105660000CC85046FAF751FF4E4AC2E902014748BA
:105670000CC830463946FAF7D0FE4B4A03C24948B7
:10568000D0E900A148480CC85046FAF7CCFECDE955
:1056900008013E480CC80898FAF71EFE3B4A03C2B0
:1056A0004048D0E902A140480CC85046FAF7BBFE7A
:1056B000CDE9080133480CC80898FAF70DFE314AC5
:1056C00003C233493748D1E900A303C85246CDE9A4
:1056D0000601FAF7A8FECDE908012D48D0E900A39C
:1056E00052460898FAF79CFE294A03C228492D48D9
:1056F000D1E902A303C85246CDE90601FAF793FEA9
:10570000CDE908012248D0E902A352460898FAF7E9
:1057100087FE1F4AC2E902011046D0E900A32148D2
:10572000C16880685246CDE90601FAF77CFECDE9F2
:1057300008011749D1E904A352460999FAF770FE06
:10574000134AC2E904011146D1E90201CDE906017B
:105750001449D1E902A102465046079BFAF763FEBD
:10576000CDE908010A49D1E906A352460999FAF799
:1057700057FE074AC2E90601044903C90BB0BDE858
:10578000F08F00000001002008010020F800002038
:10579000A8090020E0000020E8000020F000002020
:1057A00018010020C8090020100100200F481049EE
:1057B000104A03C210491148114AC2E900101149A8
:1057C0001148124AC2E900100020114A10605060CE
:1057D000104A10605060104A1060506000219160C3
:1057E000D160116151619161D1617047FCA9F1D221
:1057F0004D62503F20010020FA7E6ABC7493683FDE
:1058000028010020B81E85EB51B89E3F30010020D2
:105810003801002040010020D80900200000803F0E
:105820000000000000000000000000000000803FB9
:105830000000000000000000000000000000803FA9
:10584000555555555555C53F7D6FEB0312D6D4BF01
:105850005544880E55C1C93F3B8F68B52882A4BF07
:1058600088B20175E0EF493F09F7FD0DE13D023FC8
:105870004B2D8A1C273A03C0C88A599CE52A004050
:1058800059018D1B6C06E6BF82922EB1C5B8B33F9D
:105890004FBB610567ACDD3F182D4454FB21E93F48
:1058A0009BF681D20B73EF3F182D4454FB21F93F37
:1058B000E2652F227F2B7A3C075C143326A6813CBD
:1058C000BDCBF07A8807703C075C143326A6913C68
:1058D000C4EB98999999C9BF711623FEC671BCBFD4
:1058E0006D9A74AFF2B0B3BF9AFDDE522DDEADBF3C
:1058F0002F6C6A2C44B4A2BF0D5555555555D53F54
:10590000FF8300922449C23F6E204CC5CD45B73F6E
:10591000513DD0A0660DB13FEB0D76244B7BA93FE6
:1059200011DA22E33AAD903F0000000000000000D1
:10593000000000006E83F9A22915444ED15727FCC0
:10594000C0DD34F5999562DB4190433CAB6351FE79
:105950007059000800000020E0010000AE0A0008B5
:10596000B8590008E0010020A00D00009C3D00088F
:105970006102310149321812803F6350FABF0CE0D6
:10598000743F54157D395415FD040B117D392D4993
:1059900002890CB10B1C803F6401D60A3D01DE2D4B
:1059A000010203040410090607080902040608ACF2
:0859B000A24A041C2918410061
:04000005080000ED02
:00000001FF
