:020000040800F2
:10000000600D002001010008090100080B01000833
:100010000D0100080F010008110100080000000098
:1000200000000000000000000000000013010008B4
:100030001501000800000000170100081901000860
:100040001B0100081B0100081B0100081B01000820
:100050001B0100081B0100081B0100081B01000810
:10006000C11400081B0100081B0100081B01000847
:100070001B0100081B0100081B0100081B010008F0
:100080001B0100081B0100081B0100081B010008E0
:100090001B0100081B0100081B0100081B010008D0
:1000A0001B0100081B0100081B0100081D39000886
:1000B000B13900081B0100082D3B00081B01000896
:1000C0001B0100081B0100081B0100081B010008A0
:1000D0001B010008E54100081B0100081B01000886
:1000E0001B0100081B0100081B010008DFF80CD0F1
:1000F00000F0DAFB00480047A54E0008600D002024
:100100000648804706480047FEE7FEE7FEE7FEE7B1
:10011000FEE7FEE7FEE7FEE7FEE7FEE7293600081A
:10012000ED00000840EA01039B0703D009E008C97D
:10013000121F08C0042AFAD203E011F8013B00F8AC
:10014000013B521EF9D27047F0B480EA0102D40F8D
:100150004200B2EB410F02D20246084611464A0065
:1001600042D0C30DDDB2C1F3C752AD1A202D35DA2E
:10017000C1F3160141F4000204B15242C5F1200658
:1001800002FA06F12A411044B3EBD05F23D0C4B188
:10019000012DA0EBC35009DCF0BC4FF0004202EA95
:1001A000C352DBB200F5000000F0C6B9400000F118
:1001B000807000EBC350A0F1807040EAD17049001C
:1001C00009E0490841EAC071A0EBC35000F5000006
:1001D000400800EBC350F0BC00F0A5B96142012219
:1001E00002EB4101001BF6E7F0BC704781F00041D3
:1001F000AAE780F00040A7E780EA010210B502F00C
:100200000043400022D04A001FD0010E01EB1261D2
:10021000C0F35600C2F3560240F4000042F400025C
:10022000A0FB022000047F39140400D0401C50EAD7
:10023000124001D44000491EC2B20C0604EBD0109B
:10024000401C4008802A02D003E0002010BD20F0AE
:100250000100002900DA0020184310BD30B480EA04
:10026000010202F0004530F0004221F0004013D0BE
:1002700090B1C30DD40DC2F31601C0F31600E41AF9
:1002800041F4000140F400027D34914201D3641C2A
:1002900000E04900002C02DA30BC002070474FF427
:1002A00000000023914201D3891A034340084FEA1A
:1002B0004101F7D151B1914202D14FF0004105E027
:1002C00002D24FF0010101E06FF0010103EBC450D5
:1002D000284430BC00F027B92DE9FE4F81EA030421
:1002E00004F0004421F0004100944FF0000B23F093
:1002F000004350EA01045ED052EA03045BD0C3F32A
:100300000A54C1F30A552C44A4F2F3340194A0FB1F
:100310000254C1F3130141F48011C3F3130343F4F6
:10032000801301FB024400FB034E840A970A44EA4F
:10033000815447EA8357A4FB076802958D0A05FBA1
:1003400007854FEA932C04FB0C542705029D4FEAC6
:10035000065847EA1637B5EB08056EEB070C870E13
:10036000920E47EA811742EA8312A7FB0201B6EB1D
:100370000B0164EB00042B0D43EA0C335E1844EBD5
:100380001C50DA465146E7FB0201C5F313044FEA5D
:100390000B3343EA14534FEA0432019C43EA060349
:1003A000A4F10C040294009CCDE900B400F001F922
:1003B00003B0BDE8F08F00200146F9E7C10F80EAE5
:1003C000E0700844CA079623002100F0B5B89623D0
:1003D0000022114600F0B0B80EB5C10F80EAE070FF
:1003E0000844CA07002140F233438DE80E000A4654
:1003F0000B4600F0DEF803B000BD00F0004220F034
:100400000040C10DC0F3160040F400007F2901DA5E
:1004100000207047962903DCC1F19601C84001E035
:1004200096398840002AF4D04042704720F00040BE
:10043000C10DC0F3160040F400007F2901DA00204E
:100440007047962903DCC1F19601C8407047963980
:100450008840704700F0004230F000400AD0C10DE3
:1004600001F56071C0F3160042EA0151C20840076D
:100470001143704700200146704701F0004330B43B
:1004800021F0004150EA010206D00A0DA2F5607287
:10049000C1F31301002A02DC30BC00207047440F76
:1004A00044EAC104C100E01830BC00EBC25000F0C7
:1004B0003AB80000002801DBC0F10040002901DB50
:1004C000C1F1004181427047002801DBC0F10040CA
:1004D000002901DBC1F100418842704730B50B466D
:1004E000014600202022012409E021FA02F59D4264
:1004F00005D303FA02F5491B04FA02F52844151E38
:10050000A2F10102F1DC30BD202A04DB203A00FA1E
:1005100002F1002070479140C2F1200320FA03F35A
:100520001943904070470029A8BF7047401C4900FC
:1005300008BF20F00100704710B4B0FA80FC00FA48
:100540000CF050EA010404BF10BC704749B1CCF173
:10055000200421FA04F411FA0CF118BF01212143FF
:100560000843A3EB0C01CB1D4FEA00614FEA1020BA
:1005700042BF002010BC704700EBC350104400295C
:10058000A4BF10BC7047401C490008BF20F0010008
:1005900010BC704710B5141E73F1000408DA401C3B
:1005A00041F1000192185B411A4301D120F0010092
:1005B00010BD2DE9F04D92469B4611B1B1FA81F282
:1005C00002E0B0FA80F220329046FFF79DFF044629
:1005D0000F4640EA0A0041EA0B0153465A460843D7
:1005E00013D0114653EA010019D0C8F14002504619
:1005F00000F06CF905460E46504659464246FFF754
:1006000083FF084305D0012004E020463946BDE8B9
:10061000F08D0020054346EAE0762C4337430A98E4
:100620006305E40AA0EB08000022FD0A44EA4754EF
:100630000A3002D500200146E9E701051019694199
:10064000DDE9084500196941BDE8F04DA2E72DE953
:10065000FE4F804681EA0300C00F0C46009021F057
:10066000004123F00045B8EB0200A94105D2404605
:10067000214690461C460B46024623F0004010439C
:1006800047D0270DC7F30A00C3F30A510290401A5E
:10069000019040286BDAC3F3130040F4801B0098EC
:1006A000924620B10023D2EB030A63EB0B0B0198B7
:1006B0005946C0F140025046FFF726FF06460D4658
:1006C00050465946019A00F011F910EB08006141BB
:1006D000002487EA115284EAE7731A4340D0009A53
:1006E00062B3019A012A4FEA075215DC001B61EB45
:1006F00002014FF0004202EA0752CDE90042001C1D
:1007000041F5801132462B46FFF753FF03B0BDE899
:10071000F08F40462146F9E7001B61EB0201001C07
:1007200041F5801300185B412018A2F5001747EB34
:10073000030140EAD570B6196D4111E06D084FEA2A
:10074000360645EAC0754FEA0752001B61EB02010D
:10075000001C41F5801149084FEA30000019514151
:1007600032462B4603B0BDE8F04FFFF713BF0098A9
:10077000012240000023D0EB020263EBE0730098FB
:1007800021464FEAE074B8EB000061EB0401E9E7B1
:1007900083F000435BE781F0004158E72DE9F04D1D
:1007A00081EA030404F0004B21F0004514464FF0A9
:1007B000000A23F0004150EA050220D054EA010269
:1007C0001DD0C5F30A570246C5F31303C1F3130046
:1007D000C1F30A5640F4801543F48013A7EB0608D2
:1007E000101BD64608F2FD3873EB050002D308F162
:1007F000010801E092185B41B8F1000F03DA002014
:100800000146BDE8F08D00204FF480110646844675
:100810000EE0171B73EB050705D3121B63EB0503F3
:1008200006434CEA010C49084FEA300092185B413C
:1008300050EA0107EDD152EA030012D082EA040027
:1008400083EA0501084305D0101BAB4106D2012203
:10085000002306E000224FF0004302E06FF00102A7
:1008600053101AEB06004CEB085110EB0A0041EB59
:100870000B01BDE8F04DFFF78DBE70B521F00043D0
:1008800003430CD0C1F30A550024D5EB040564EBF7
:100890000403D617AD1AB34102DB0020014670BD38
:1008A000201841EB025170BD064C074D06E0E06890
:1008B00040F0010394E8070098471034AC42F6D3A7
:1008C000FFF718FC4050000860500008202A04DBA5
:1008D000203A21FA02F00021704721FA02F3D040B9
:1008E000C2F120029140084319467047202A06DBD6
:1008F000CB17203A41FA02F043EAE07306E041FAEE
:1009000002F3D040C2F120029140084319467047DB
:100910002DE9F04D00231A461B1A8A4103DB002003
:100920000146BDE8F08DC1F30A52C1F3130141F451
:1009300080154FF0000BD10702D100186D41521EF7
:100940000027044640F2FF11384601EB620A3E469A
:100950008046024600204FF48011FFF7B7FFC2190E
:100960007141BB1846EB0100B4EB030C75EB000CB6
:1009700004D3E41A65EB000517460E46241908F166
:1009800001006D4180463428E3DDF91946EB06008D
:10099000091BA84103D24FF0FF32134601E00022A9
:1009A00013461BEB070046EB0A51BDE8F04DFFF77D
:1009B000F1BD10B502F053FB02F05EFB642000F0C5
:1009C00037FD02F04CFB642000F032FD02F054FBD6
:1009D000642000F02DFD02F042FB642000F028FDB1
:1009E00002F04AFB642000F023FD02F038FB10BD4A
:1009F00021B1826842F00102826003E0826822F045
:100A0000010282607047000030B5024600200023DA
:100A100050680F4C20400D790C6844EA05242043AF
:100A2000506090680B4C2040D1E902542C434D7922
:100A300044EA450420439060D06A20F470000C7CA6
:100A4000641EE4B2234340EA0350D06230BD00008C
:100A5000FFFEF0FFFDF7F1FFF0B504460D46002064
:100A60000021092D11DDE068A5F10A0606EB460715
:100A7000072606FA07F18843A5F10A0606EB4606A3
:100A800003FA06F10843E0600CE0206905EB450736
:100A9000072606FA07F1884305EB450603FA06F137
:100AA00008432061072A0FDA606B561E06EB8607A3
:100AB0001F2606FA07F18843561E06EB860605FA3E
:100AC00006F10843606322E00D2A0FDA206BD61F7F
:100AD00006EB86071F2606FA07F18843D61F06EBAA
:100AE000860605FA06F10843206310E0E06AA2F1E9
:100AF0000D0606EB86071F2606FA07F18843A2F1CA
:100B00000D0606EB860605FA06F10843E062F0BD25
:100B10002DE9F05F04460D460026B14607E014F8C3
:100B200009003044C6B209F1010000F0FF09681E57
:100B30004845F4DC601910F8010CB04201D0BDE862
:100B4000F09F2078AA2802D16078AF2800D0F6E77D
:100B5000A07801283ED1207901280AD1FE480078EA
:100B600040F00200FC4908700020FC4908804880E1
:100B70008880207902280AD1F748007840F00100E7
:100B8000F54908700020F64908804880888020795F
:100B900003280AD1F048007840F00200EE490870BE
:100BA0000846007840F001000870207904280FD131
:100BB000EC48007880F00100EA49087008460078A7
:100BC00018B10120E849087002E00020E6490870E9
:100BD00001F0B0FFA078022812D12079012803D1BA
:100BE000E2498871C87108722079A02802D10120D9
:100BF000DE4908702079A12802D10120DB49487222
:100C0000A07810287ED12179090209B2627941EADF
:100C10000200FFF7E1FB8246D54AD64BFFF75CFBAB
:100C20000746FFF72AFCD4490860A179090209B2F6
:100C3000E27941EA0200FFF7CFFB8246CC4ACD4B76
:100C4000FFF74AFB0746FFF718FCCB494860217ABB
:100C5000090209B2627A41EA0200FFF7BDFB82464F
:100C6000C34AC44BFFF738FB0746FFF706FCC249EF
:100C70008860A17A090209B2E27A41EA0200FFF72C
:100C8000ABFB8246BA4ABB4BFFF726FB0746FFF792
:100C9000F4FBBA490860217B090209B2627B41EA90
:100CA0000200FFF799FB8246B14AB24BFFF714FBF3
:100CB0000746FFF7E2FBB1494860A17B090209B290
:100CC000E27B41EA0200FFF787FB8246A84AA94B74
:100CD000FFF702FB0746FFF7D0FBA8498860217C9D
:100CE000090209B2627C41EA0200FFF775FB824605
:100CF0009F4AA04BFFF7F0FA0746FFF7BEFBA0495B
:100D0000086000E029E0A17C090209B2E27C41EA26
:100D10000200FFF761FB8246954A964BFFF7DCFA2B
:100D20000746FFF7AAFB96494860217D090209B2F0
:100D3000627D41EA0200FFF74FFB07468C4A8D4B6C
:100D4000FFF7CAFA8246FFF798FB8D498860A078C2
:100D5000314600F0D7F901F0EDFEA07811287DD1E1
:100D60002179090209B2627941EA0200FFF734FBF6
:100D700007467F4A7F4BFFF7AFFA8246FFF77DFBBE
:100D800080490860A179090209B2E27941EA0200CA
:100D9000FFF722FB8246764A764BFFF79DFA07461D
:100DA000FFF76BFB77494860217A090209B2627A42
:100DB00041EA0200FFF710FB82466D4A6D4BFFF7D8
:100DC0008BFA0746FFF759FB6E498860A17A090242
:100DD00009B2E27A41EA0200FFF7FEFA0746644AE6
:100DE000644BFFF779FA8246FFF747FB66490860D4
:100DF000217B090209B2627B41EA0200FFF7ECFAAB
:100E000007465B4A5B4BFFF767FA8246FFF735FB05
:100E10005D494860A17B090209B2E27B41EA020018
:100E2000FFF7DAFA8246524A524BFFF755FA074665
:100E3000FFF723FB54498860217C090209B2627CD8
:100E400041EA0200FFF7C8FA8246494A494BFFF7D8
:100E500043FA0746FFF711FB4C4900E02AE008601F
:100E6000A17C090209B2E27C41EA0200FFF7B4FA70
:100E700007463F4A3F4BFFF72FFA8246FFF7FDFA3E
:100E800042494860217D090209B2627D41EA0200BF
:100E9000FFF7A2FA0746364A364BFFF71DFA82469D
:100EA000FFF7EBFA39498860A078314600F02AF95B
:100EB00001F040FEA07812286ED12179090209B212
:100EC000627941EA0200FFF787FA0746284A294B70
:100ED000FFF702FA8246FFF7D0FA2D490860A179A0
:100EE000090209B2E27941EA0200FFF775FA074602
:100EF0001F4A204BFFF7F0F98246FFF7BEFA24495C
:100F00004860217A090209B2627A41EA0200FFF7D9
:100F100063FA0746164A174BFFF7DEF98246FFF7DA
:100F2000ACFA1B498860A17A090209B2E27A41EA67
:100F30000200FFF751FA07460D4A0E4BFFF7CCF9B6
:100F40008246FFF79AFA13490860217B090209B229
:100F5000627B41EA020020E0300000201E000020F9
:100F600018000020C6000020C5000020E80800206E
:100F7000FCA9F1D24D62503FBC070020F8070020C9
:100F800034080020080700204407002080070020C4
:100F900070080020AC08002023E0FFF71DFA074688
:100FA0001B4A1C4BFFF798F98246FFF766FA1A496D
:100FB0004860A17B090209B2E27B41EA0200FFF727
:100FC0000BFA0746124A134BFFF786F98246FFF7E2
:100FD00054FA11498860A078314600F093F801F086
:100FE000A9FDA078132803D1A078314600F08AF833
:100FF000A078142803D1A078314600F083F8A078B7
:10100000152803D1A078314600F07CF800BF96E5A2
:10101000FCA9F1D24D62503FAC08002010B5044647
:101020003448007838B9AA2C05D10120314908701C
:10103000314804705DE02F480078012807D1AF2CBB
:1010400005D102202B4908702B48447051E02948F3
:101050000078022807D1F12C05DA03202549087011
:101060002548847045E02348007803280CD1322CB1
:101070000ADA04201F4908701F48C4701F48047012
:1010800000201F49087034E01A480078042819D15C
:101090001A480078002815DD18480078401E1749C6
:1010A00008701748007816490978491C144A1170CD
:1010B000001D11490C5411480078D0B905200D4984
:1010C000087016E00B48007805280FD10020094968
:1010D00008700B480078001D07490C540848007838
:1010E000401DC1B20448FFF713FD02E00020014992
:1010F000087010BDCE00002024090020CC00002084
:10110000CD0000202DE9F04105460E460027AA201B
:101110000D4908704870EF2088700220C87008469A
:1011200005714671002405E00748005D3844C7B2E8
:10113000601CC4B2062CF7DB03488771072100F05E
:1011400005F8BDE8F0810000F208002070B5044603
:101150000D462946204603F0D1FE70BD00B587B08C
:1011600001214FF4017001F0F3FE4FF4004001F053
:10117000D3FE0220ADF8180000208DF81B0006A950
:10118000104800F019FC00200190049001208DF817
:10119000140000208DF808004FF460200390002018
:1011A0008DF8090001A90848FFF72EFC0121064827
:1011B000FFF71EFC0723012211460348FFF74CFCF2
:1011C00007B000BD00080140002401402DE9F04FA8
:1011D00087B005460E4614469B462868049068680A
:1011E0000590A8680690B4F90010A1F2DC50FFF752
:1011F000E5F807467049FFF731F80190B4F902109D
:10120000A1F2DC50FFF7DAF807466B49FFF726F842
:101210000290B4F9061040F2DC52501AFFF7CEF8F3
:1012200007466549FFF71AF803906448049A019944
:1012300001F010FC6248059A029901F00BFC61492B
:101240007068FEF7D9FF07465C483A46416B5E4836
:1012500001F000FC5B493068FEF7CEFF80F00047EC
:1012600057483A46416B594801F0F4FB5549B0687C
:10127000FEF7C2FF0746564A11680398FEF7BCFF07
:1012800080463A464146534801F0E4FBB4F9040075
:1012900040F2DE31884266DD4F48B0F90800B0F513
:1012A000AF6F60DDB4F90400FFF788F88146464867
:1012B000416B4846FEF79AFF80464448416B4046E2
:1012C000FEF742FF07464348416B3846FEF73CFFB6
:1012D00042490860B4F90400FFF770F881463A48C3
:1012E000416B4846FEF730FF80463848416B404628
:1012F000FEF72AFF07463748416B3846FEF776FF70
:1013000037490860B4F90400FFF758F881462E48C1
:10131000416B4846FEF718FF80462C48416B40461B
:10132000FEF764FF07462B48416B3846FEF70CFF7B
:101330002C490860B4F90400FFF740F881462248C0
:10134000416B4846FEF752FF80462048416B4046BD
:10135000FEF74CFF07461F48416B3846FEF746FF35
:101360002149086008E000201C4908601C49086009
:101370001C4908601C4908601B480068FFF73DF8DD
:1013800007B218480068FFF738F80FFA80F81448D9
:101390000068FFF732F80FFA80F910480068FFF78D
:1013A0002CF80FFA80FA3B4642464946504601F077
:1013B0008DFA07B0BDE8F08F00004040080700201C
:1013C00044070020A34C6542BC070020F80700201A
:1013D000800700203408002056090020B4000020B7
:1013E000B8000020BC000020C000002010B56FF045
:1013F000040002F005F90A4800680A49B0FBF1F060
:10140000094908700846007800EB4001C1EBC010A4
:101410004FF6FF7101EAC0000449088010BD0000CA
:10142000E400002000127A001200002014000020C6
:10143000014600224FF0E0231A610E4A12884A4307
:101440005A6100229A611A46126942F001021A6139
:1014500000BF4FF0E022106900F001021AB100F461
:101460008032002AF5D000224FF0E0231A619A6101
:101470007047000014000020014600224FF0E023D6
:101480001A610E4A12784A435A6100229A611A463A
:10149000126942F001021A6100BF4FF0E0221069A8
:1014A00000F001021AB100F48032002AF5D00022C7
:1014B0004FF0E0231A619A6170470000120000208B
:1014C00010B5042000F042F8002834D01A48006813
:1014D00040F4807018490860072001F0ADFE044612
:1014E00004F0200050B10F2001F0DEFE2021272063
:1014F00001F0BEFEFF21E12001F0BAFE04F0400041
:1015000040B10E4801F07CFE01F0D8FD40212720BB
:1015100001F0AEFE04F0100050B10F2001F0C4FE47
:101520001021272001F0A4FEFF21E12001F0A0FE00
:10153000042000F005F810BD140801402E01002021
:101540000149086070470000140401400146002072
:101550000022074B1B6803EA0102054B14331B688A
:101560000B4013B10AB1012000E0002070470000D9
:1015700000040140002123498279002A3AD00A461A
:10158000126803689A430B461A600A1D12680368C2
:101590009A430B1D1A60027911440A6803681A43C2
:1015A0000A60184A0832126803689A43154B0833D8
:1015B0001A601A1D126803689A43124B0C331A60A2
:1015C0004279102A0ED11A1F126803681A430D4B74
:1015D00008331A601A1D126803681A43094B0C334A
:1015E0001A600DE00749427911440A6803681A43FA
:1015F0000A6005E0027911440A6803689A430A60A8
:1016000070470000000401400EB50121092001F0DF
:101610009FFC0221012000F0AFF90420ADF8080082
:1016200048208DF80B0003208DF80A0002A9094814
:1016300000F0C2F90420009000208DF804000C2076
:101640008DF8050001208DF806006846FFF792FF2F
:101650000EBD0000000C014030B5044604254FF4D7
:10166000302000F085F80546042D17D10C4800699C
:1016700040F002000A49086108464461006940F0F0
:10168000400008614FF4302000F072F8054604482D
:10169000006941F6FD71084001490861284630BDE6
:1016A0000020024004200B49C96801F0010109B182
:1016B00001200EE00749C96801F0040109B10220C8
:1016C00007E00449C96801F0100109B1032000E0F6
:1016D00004207047002002400348006940F0800069
:1016E00001490861704700000020024078B50646B5
:1016F0000C46042500200090E80200F039F8054669
:10170000042D24D11348006940F0010011490861FB
:101710003480E80200F02CF80546042D10D1B01CEE
:101720000090200C00990880E80200F021F805469E
:101730000848006941F6FE7108400649086106E064
:101740000448006941F6FE710840024908612846D4
:1017500078BD000000200240024803494860034869
:10176000486070472301674500200240AB89EFCDF8
:1017700000B502460423FFF795FF034603E0FFF799
:1017800091FF0346521E012B01D1002AF7D102B965
:101790000523184600BD2DE9F04105460C461646C6
:1017A00055F824701BE000E0761EB44205DA55F8C7
:1017B00026003946FEF788FEF6D955F8260045F88A
:1017C000240000E0641CB44205DA55F824003946D0
:1017D000FEF770FEF6D955F8240045F82600B4420D
:1017E000E1DB45F824702046FEF7E8FDBDE8F08116
:1017F00008B50121042001F0ABFB40F20F10ADF859
:10180000000004208DF803006946024800F0D4F877
:1018100008BD00000008014010B5FFF7E9FF00F027
:1018200001F810BD00B589B00121084601F080FB28
:101830000121C80201F08CFB4FF6FF70ADF81C00CF
:101840004720ADF818000020ADF81E00ADF81A00D2
:101850008DF8200006A94FF0804002F04FFC4FF6B3
:10186000FF70ADF810004720ADF80C000020ADF877
:101870001200ADF80E008DF8140003A93D4802F0E7
:101880003DFC0020ADF80000ADF802000120ADF8ED
:1018900004000020ADF80600ADF8080069464FF0DE
:1018A000804002F0F5F90420ADF800000020ADF80A
:1018B00002000120ADF804000020ADF80600ADF8EC
:1018C000080069464FF0804002F0E2F90820ADF8C8
:1018D00000000020ADF802000120ADF80400002057
:1018E000ADF80600ADF8080069464FF0804002F000
:1018F000CFF90C20ADF800000020ADF80200012067
:10190000ADF804000020ADF80600ADF80800694607
:101910004FF0804002F0BCF90020ADF80000ADF8B7
:1019200002000120ADF804000020ADF80600ADF87B
:10193000080069460F4802F0ABF91F214FF08040C4
:1019400002F076F903210B4802F072F901221F21FF
:10195000900702F0F3F901220321064802F0EEF9A4
:101960000121880702F06AF90121024802F066F9B4
:1019700009B000BD002C014030B500228B071C0FC0
:101980000F2303FA04F20B4B8C1053F824309343CB
:10199000084C8D1044F8253023468C1053F8243021
:1019A0008C07240F00FA04F42343024C8D1044F8F2
:1019B000253030BD080001402DE9F04102460025E8
:1019C0000026002000230024002791F803C00CF01B
:1019D0000F0591F803C00CF0100CBCF1000F03D000
:1019E00091F802C04CEA050591F800C0BCF1000F67
:1019F00031D0146800202BE04FF0010C0CFA00F3FA
:101A0000B1F800C00CEA03069E4220D183004FF0DB
:101A10000F0C0CFA03F7BC4305FA03FC4CEA040470
:101A200091F803C0BCF1280F06D14FF0010C0CFA5D
:101A300000FCC2F814C00AE091F803C0BCF1480FE2
:101A400005D14FF0010C0CFA00FCC2F810C0401C8C
:101A50000828D1D31460B1F800C0BCF1FF0F34DD09
:101A6000546800202EE000F1080C4FF0010808FA3D
:101A70000CF3B1F800C00CEA03069E4221D18300AA
:101A80004FF00F0C0CFA03F7BC4305FA03FC4CEAC9
:101A9000040491F803C0BCF1280F05D100F1080C33
:101AA00008FA0CF8C2F8148091F803C0BCF1480F92
:101AB00007D100F1080C4FF0010808FA0CF8C2F841
:101AC0001080401C0828CED35460BDE8F0814161ED
:101AD00070470161704710B501F0C1FA01F0B2FA28
:101AE0006420FFF7A5FC01F0BAFA6420FFF7A0FC20
:101AF00001F0A8FA6420FFF79BFC01F0B0FA642023
:101B0000FFF796FC01F09EFA6420FFF791FC01F0CC
:101B1000A6FA10BD10B540200A49086001F034FB58
:101B20008020084908600120FFF7A6FC40200549F5
:101B3000091F08600220FFF79FFC40200149086050
:101B400010BD0000140C014008B50121082001F06F
:101B5000FFF9C020ADF8000010208DF8030003202D
:101B60008DF8020069460448FFF726FFC0210248AD
:101B7000FFF7AFFF08BD0000000C014010B540208A
:101B80000A49086001F000FB80200849091F08602D
:101B90000120FFF771FC40200449091F0860012063
:101BA000FFF76AFC40200149086010BD140C014099
:101BB00070B50546002401F0D5FA002618E0402053
:101BC000104908600120FFF757FC40200D49091F0C
:101BD00008606006040E0B480C380068C0F3C010A3
:101BE00008B1601CC4B20120FFF746FC701CC6B2ED
:101BF000082EE4DB15B1FFF78DFF01E0FFF7BEFF14
:101C0000204670BD140C014070B504460D461646C2
:101C100000F086F8204600F055F800F0B3F818B14F
:101C200000F098F8012070BD284600F04BF800F055
:101C3000A9F800F075F8611CC8B200F043F800F094
:101C4000A1F80020FFF7B4FF307000F083F8002007
:101C5000E9E72DE9F04706460F4615469846002469
:101C600000F05EF8304600F02DF800F08BF820B15F
:101C700000F070F80120BDE8F087384600F022F847
:101C800000F080F800F04CF8711CC8B200F01AF8AF
:101C900000F078F800240FE0681EA04204D0012074
:101CA000FFF786FF814603E00020FFF781FF8146B2
:101CB00008F80490601CC4B2AC42EDDB00F04AF8B6
:101CC0000020D8E770B5044601F05EFA40201349C1
:101CD000086000251EE004F0800020B180200F493C
:101CE000091F086002E080200C4908606006040EAD
:101CF0000120FFF7C1FB40200849091F08600120AF
:101D0000FFF7BAFB4020054908600120FFF7B4FB4C
:101D1000681CC5B2082DDEDB70BD0000140C01404C
:101D200010B501F031FA80200949086040200860B0
:101D30000420FFF7A1FB80200549091D086004204D
:101D4000FFF79AFB40200249091D086010BD000002
:101D5000100C014010B501F017FA40200849086046
:101D6000802008600420FFF787FB40200449091FFA
:101D70000860802008600420FFF77EFB10BD000093
:101D8000140C014010B5002401F0ECF9802010493A
:101D900008600120FFF770FB40200D49086001201A
:101DA000FFF76AFB07E0601CC4B2FA2C03DDFFF703
:101DB000D1FF012010BD064808380068C0F3C010EC
:101DC0000028F0D140200249091D08600020F1E7F9
:101DD000100C014070B506460C461546FFF7A0FFF3
:101DE0003046FFF76FFFFFF7CDFF18B1FFF7B2FFE7
:101DF000012070BD2046FFF765FFFFF7C3FF2846AF
:101E0000FFF760FFFFF7BEFF18B1FFF7A3FF012048
:101E1000EFE7FFF79FFF0020EBE7000007B5AEB04C
:101E20002422FE4923A8FEF77DF92F98006822900E
:101E30002F98406821902F98806820902E980068F5
:101E40001F902E9840681E902E9880681D90F44830
:101E500001680068FEF7D0F91590F2480168F04873
:101E60000068FEF7C9F91490EF480168EC48006873
:101E7000FEF7C2F91390ED480168E9480068FEF7E3
:101E8000BBF91290E74801680068FEF7B5F91190B8
:101E9000E5480168E3480068FEF7AEF91090E348B2
:101EA0000168E0480068FEF7A7F90F90DE48016876
:101EB0000068FEF7A1F90E90DC480168DA48006876
:101EC000FEF79AF90D90D94801680068FEF794F979
:101ED0000C90DDE92110FEF78FF90A902099FEF7AA
:101EE0008BF900210B90FEF7E5FA01D131B000BD6E
:101EF00020990846FEF780F90A9021990846FEF7D6
:101F00007BF9089022990846FEF776F90790089920
:101F1000FEF71AF909900A99FEF716F90B9002F0EC
:101F20009BFF169016992298FEF766F92290169953
:101F30002198FEF761F9219016992098FEF75CF937
:101F4000209013990F98FEF751F94FF080410B90B4
:101F5000FEF752F91C900D991498FEF7F5F84FF022
:101F600080410B90FEF748F91B9011991598FEF7E8
:101F70003DF90A900E99FEF739F90B900C99FEF78E
:101F8000E3F81A901B992098FEF736F90B901A99EE
:101F90002198FEF731F90A900B99FEF727F919906D
:101FA0001A992298FEF728F90B901C992098FEF7B1
:101FB00023F90A900B99FEF719F918901C992198AA
:101FC000FEF71AF90B901B992298FEF715F90A9063
:101FD0000B99FEF70BF9179095491998FEF70CF934
:101FE0000B90944801680B98FEF7AEF89149086091
:101FF0008F491898FEF700F90B908F4801680B98ED
:10200000FEF7A2F88C49086089491798FEF7F4F8A2
:102010000B908A4801680B98FEF796F8874908608C
:102020004FF07F501999FEF7E7F80A901F99FEF7D5
:102030008BF80B907F4801680B98FEF785F81F908E
:102040004FF07F501899FEF7D7F80A901E99FEF7C7
:102050007BF80B90784801680B98FEF775F81E9096
:102060004FF07F501799FEF7C7F80A901D99FEF7B9
:102070006BF80B90714801680B98FEF765F81D909E
:102080006A481D990068FEF7B7F8099066481E99DE
:102090000068FEF7B1F807906248006880F00040E1
:1020A00005901F99FEF7A8F806900799FEF79EF88D
:1020B00008900999FEF79AF85D490A90FEF79CF896
:1020C0000B90574801680B98FEF73EF8544908609A
:1020D00056481E990068FEF78FF8099052481D99DE
:1020E0000068FEF789F807904D481F990068FEF7D1
:1020F00083F806900799FEF727F808900999FEF7EC
:1021000075F84B490A90FEF777F80B90454801683F
:102110000B98FEF719F84349086044481F99006876
:10212000FEF76AF809903F481D990068FEF764F8C9
:1021300007903B481E990068FEF75EF806900799E5
:10214000FEF754F808900999FDF7FEFF38490A9008
:10215000FEF752F80B90344801680B98FDF7F4FF36
:102160003149086030481F990068FEF745F809902A
:102170002C481E990068FEF73FF8079028481D99E3
:102180000068FEF739F806900799FDF7DDFF089023
:102190000999FEF72BF826490A90FEF72DF80B90C7
:1021A000224801680B98FDF7CFFF204908600846D8
:1021B00001680068FEF720F80A901B480168006873
:1021C000FEF71AF80890174801680068FEF714F83F
:1021D0000690134801680068FEF70EF8059006990E
:1021E000FDF7B2FF07900899FDF7AEFF09900A9935
:1021F000FDF7AAFF0B9002F02FFE169008481699E3
:102200000068FDF7F9FF064908600648169900685E
:10221000FDF7F2FF03490860034811E02C4F000866
:102220008C000020900000209400002098000020E6
:102230000AD7A33B9C000020A0000020A40000209F
:1022400016990068FDF7D8FF74490860744816991C
:102250000068FDF7D1FF7249086011991598FDF7E4
:1022600073FF0A900E99FDF7C1FF0B900C99FDF7D3
:10227000BDFF239012991098FDF766FF4FF0804143
:102280000B90FDF7B9FF249013990F98FDF7AEFF5F
:102290004FF080410B90FDF7AFFF259012991098F9
:1022A000FDF7A4FF4FF080410B90FDF7A5FF2690AE
:1022B00011991598FDF79AFF0A900E99FDF744FFC2
:1022C0000B900C99FDF792FF279014990D98FDF74C
:1022D0003BFF4FF080410B90FDF78EFF2890139944
:1022E0000F98FDF731FF4FF080410B90FDF784FF11
:1022F000299014990D98FDF779FF4FF080410B90CC
:10230000FDF77AFF2A9011991598FDF76FFF0A9053
:102310000E99FDF76BFF0B900C99FDF715FF2B90B5
:102320002E9880683F490990FDF766FF3E490A9064
:10233000FDF762FF0B903098806801460A900B9879
:10234000FDF702FF3099886013990F98FDF74EFF53
:102350004FF080410490FDF74FFF0590FEF77AF8AB
:10236000CDE9060102F05EFA81F000414FF0C04273
:102370002E4BCDE90801FDF7AFFFCDE90A01FEF7CD
:102380007CF83099086011991598FDF72FFF01909E
:102390000E99FDF72BFF02900C99FDF7D5FE0390E7
:1023A000FEF758F8CDE906014FF080401499FDF78B
:1023B00023FF02904FF080400D99FDF71DFF019023
:1023C0000299FDF7C1FE0390FEF744F8CDE9040140
:1023D000DDE9062302F06EFC81F000414FF0C042BF
:1023E000124BCDE90801FDF777FFCDE90A01FEF7B1
:1023F00044F83099486000202C900AE023A92C98DA
:1024000051F820100A4A42F820102C98401CC0B203
:102410002C902C980928F1DB00BF67E59400002080
:1024200098000020A34C65420AD7233C66A64C4086
:10243000A406002008B50121082000F089FD4FF412
:102440004070ADF8000010208DF8030003208DF8D7
:10245000020069460648FFF7AFFA4FF4807104485E
:10246000FFF737FB4FF400710148FFF730FB08BD61
:10247000000C014000B589B001210D2000F068FD7D
:102480000121022000F054FDC020ADF820001820EA
:102490008DF8230003208DF8220008A93848FFF7A3
:1024A0008BFA0320ADF8200018208DF823000320BC
:1024B0008DF8220008A93348FFF77EFA43F69720EB
:1024C000ADF818004720ADF814000020ADF8160054
:1024D000ADF81A0005A92C4801F010FE6020ADF8F7
:1024E00004000020ADF80A00ADF80C000120ADF8A2
:1024F000060001A9244801F04DFC0821224801F002
:102500009EFC6020ADF804000020ADF80A00ADF894
:102510000C000120ADF8060001A91B4801F098FC51
:102520000821194801F0F3FC6020ADF804000020F8
:10253000ADF80A00ADF80C000120ADF8060001A9C5
:10254000114801F0F1FC08210F4801F04AFD60201C
:10255000ADF804000020ADF80A00ADF80C00012031
:10256000ADF8060001A9084801F044FD082106481D
:1025700001F08BFD0121044801F060FB09B000BDB2
:1025800000080140000C01400004004010B504E0C8
:1025900004A001F0FBFF00F06FFD00F08EF90028B1
:1025A000F6D010BD0D4D505536303530206E6F20B1
:1025B000636F6E6E6563742E2E2E0D0A0000000090
:1025C00010B5FFF7E3FF13A001F0E0FF80216B20BF
:1025D00000F05EF96420FEF72BFF01216B2000F074
:1025E00057F90021382000F053F918211B2000F082
:1025F0004FF908211C2000F04BF904211A2000F0AB
:1026000047F90021192000F043F90221372000F09A
:102610003FF910BD4D505536303530D2D1C1ACBD2B
:10262000D30D0A007FB514461D4630480088A0B976
:102630000020ADF80000ADF80200ADF804002C4910
:1026400008602C4908602C4908600120274908804F
:102650000025002020806080A080BDF90000244972
:102660000968084422490860BDF902002149096847
:10267000084420490860BDF90400401B1E49096850
:1026800008441D490860194801881CA001F07EFF1C
:10269000184801681DA001F079FF14480088C82877
:1026A0001DD1134800681149098890FBF1F000B270
:1026B0002080104800680D49098890FBF1F000B2B5
:1026C00060800D4800680949098890FBF1F000B26C
:1026D000A080002005490880012004B070BD034897
:1026E0000088401C014908800020F6E740000020D7
:1026F00034000020380000203C000020B5DA2564BA
:10270000B4CEC8A1D1F90D0A0000000074656D7047
:1027100067793D25640D0A001CB54448407843495B
:10272000097840EA012042490988401A00B241492B
:1027300008803E48C0783D49897840EA01203C49FC
:102740004988401A00B23B494880384840793749A7
:10275000097940EA012036498988401A00B2354992
:1027600088803248407A3149097A40EA012032496A
:102770000988401A00B2314908802C48C07A2B4998
:10278000897A40EA01202C494988401A00B22B4935
:1027900048802648407B2549097B40EA012026499C
:1027A0008988401A00B2254988802548007800F0C1
:1027B0000100E0B10846016800918088ADF804008E
:1027C00000231D4ADDE90001FFF72CFF78B11C480A
:1027D000007820F001001A49087000F0ABF9FFF70B
:1027E0007AF91748007840F002001549087014483B
:1027F0000078C0F34000B8B10E48016800918088AD
:10280000ADF8040042F20403094ADDE90001FFF7D4
:1028100009FF48B10A48007820F002000849087012
:1028200000F088F9FEF7C5F81CBD0000000100208B
:102830001E00002024000020180000202A00002094
:102840003000002010B5034A0E213B2000F011F8A3
:1028500010BD00000001002070B504460D462A4658
:102860002146D020FFF7D0F908B1012070BD00202B
:10287000FCE770B504460D46164633462A46214607
:10288000D020FFF7E6F908B1012070BD0020FCE779
:1028900070B504460D462A462146D020FFF79AFA25
:1028A00008B1012070BD0020FCE708B5694675201D
:1028B000FFF7D2FF9DF8000008BD10B5FFF7F5FF48
:1028C000682801D1012010BD0020FCE730B5B0F52B
:1028D000FA6F01DD4FF4FA60B1F5FA6F01DD4FF4E4
:1028E000FA61B2F5FA6F01DD4FF4FA62B3F5FA6FEF
:1028F00001DD4FF4FA63B0F57A7F01DA4FF47A70B4
:10290000B1F57A7F01DA4FF47A71B2F57A7F01DAA4
:102910004FF47A72B3F57A7F01DA4FF47A73044D8B
:1029200028802D1D29802D1D2A802D1D2B8030BD36
:102930003404004070B5002100230F22C47804B392
:10294000154C246804F4E064C4F5E064210AC1F184
:102950000403CA40447804FA03F184781440214304
:1029600009010E4C0678A155047804F01F050124D6
:10297000AC4005786D11AD0005F1E025C5F80041CA
:1029800009E0047804F01F050124AC40044D0678EA
:10299000761145F8264070BD0CED00E000E400E043
:1029A00080E100E002490143024A116070470000E3
:1029B0000000FA050CED00E008B54FF4A060FFF749
:1029C000F1FF1E208DF8000001208DF801008DF828
:1029D00002008DF803006846FFF7ACFF25208DF854
:1029E000000002208DF8010001208DF802008DF812
:1029F00003006846FFF79EFF08208DF800000220C4
:102A00008DF801008DF8020001208DF80300684662
:102A1000FFF790FF1C208DF8000000208DF80100CA
:102A200003208DF8020001208DF803006846FFF7AF
:102A300081FF1B208DF8000000208DF8010002208E
:102A40008DF8020001208DF803006846FFF772FF41
:102A500008BD00002DE9F04104460E461546294602
:102A60003046FDF7C3FBE060A169E068FDF7BEFBFF
:102A70006061E1682068FDF7BFFBA06294F8380050
:102A8000FDF7A5FC80466168FDF7B6FB07462169A6
:102A9000FDF7B2FBE0626169A068FDF7ADFB206362
:102AA000D4E90A01FDF750FB0746216BFDF74CFB0B
:102AB00060631E480078012831D11D48B0F9040038
:102AC000B4282CDB2846216AFDF7FEFC07D3206AD8
:102AD00080F0004729463846FDF7F6FC03D2002077
:102AE00084F838001DE0012084F83800D4E9031090
:102AF000FDF72AFB2061616A2069FDF7E5FC01D240
:102B0000606A2061606A80F0004738462169FDF7FD
:102B1000DBFC06D2606A80F00040206101E000200A
:102B20002061E068A061BDE8F0810000C5000020E0
:102B30005609002070B500F01BF83E242046E1172E
:102B400004EB91718910A4EB8101091D09B10121E8
:102B500000E0002194FBF1F1CDB22A46024903487E
:102B600000F008FC70BD0000C806002000F8010855
:102B700010B534480088344908803248408848807D
:102B800030488088888031480088C8802F48408835
:102B900008812E488088488142F210708881002088
:102BA000C881088248828882C882088348838883D3
:102BB000C883088448848884C884088548858885B3
:102BC000C885234908682349FDF716FB0446FDF72D
:102BD0002DFC1D4908861E4948681E49FDF70CFB5F
:102BE0000446FDF723FC18494886194988681949A5
:102BF000FDF702FB0446FDF719FC134988861649C8
:102C000008681449FDF7F8FA0446FDF70FFC0E4971
:102C1000C886114948680F49FDF7EEFA0446FDF7EA
:102C200005FC094908870C4988680A49FDF7E4FA58
:102C30000446FDF7FBFB044948870848007888876D
:102C400010BD00001E000020C80600201800002053
:102C50007008002000007A44AC08002042000020E8
:102C60002C482D4908602D482D4908602D484860A2
:102C70002D488860002081F838002C4808622C48D4
:102C800048620020244981F838002A4808622A480E
:102C9000486220482949086020482949086021489D
:102CA000486021488860002081F838001F48086289
:102CB0001F4848620020214981F838001D480862F9
:102CC0001D4848624FF081401E490860C0011E49FE
:102CD00008604FF07F5048608860002081F838001D
:102CE00012480862124848620020164981F83800EC
:102CF00010480862104848620020144981F83800E2
:102D000008624862124981F83800124808620A488D
:102D10004862704733331340080700203333B33F12
:102D2000BC070020CDCC4C3F6666E63F0000164352
:102D30000000964400000C42000048434407002075
:102D4000F8070020800700203408002070080020C9
:102D5000AC0800200000C84270B5FFF773FDFFF714
:102D6000DBFC0C225149524800F0BCFB4F4908687B
:102D70005049FDF741FA04464F49FDF73DFA4B49EA
:102D8000086048684B49FDF737FA04464A49FDF7A1
:102D900033FA4649486088684649FDF72DFA0446EB
:102DA0004549FDF729FA414988604449B1F90000D5
:102DB000FDF704FB04464249FDF71EFA414908604D
:102DC0003E49B1F90200FDF7F9FA04463C49FDF726
:102DD00013FA3C4948603949B1F90400FDF7EEFAAD
:102DE00004463749FDF708FA3649886036480078C6
:102DF00000283CD0354908683549FDF7FDF90446FF
:102E00002A4908683349FDF7F7F905462146FDF7D9
:102E10009BF9264908602D4948682D49FDF7ECF9D2
:102E20000446224948682B49FDF7E6F90546214644
:102E3000FDF78AF91D494860244988682449FDF74F
:102E4000DBF90446194988682249FDF7D5F905469A
:102E50002146FDF779F915498860084600681B4945
:102E600008601248406848601048806888600F48D1
:102E70000068194908600D48406848600B48806840
:102E8000886008680021FDF715FB0ED012494868DC
:102E90000021FDF70FFB08D00F4988680021FDF7DE
:102EA00009FB02D001200D49087070BD7406002096
:102EB0002400002040DAFF380AE81C412A000020E4
:102EC00045798B3A5C060020A80000208C06002083
:102ED000CDCCCC3D6666663F980600208800002079
:102EE0002DE9F04107460D461646B54212DA324644
:102EF00029463846FEF74FFC8046FDF77EFA044629
:102F0000621E29463846FFF7EBFF3246611C384601
:102F1000FFF7E6FFBDE8F08101460020034A506854
:102F200020F4404008435060704700000010024009
:102F300029B1064AD2690243044BDA6104E0034A2C
:102F4000D2698243014BDA617047000000100240F1
:102F500029B1064A92690243044B9A6104E0034A8C
:102F600092698243014B9A61704700000010024051
:102F700030B500210022002400232D4D6D6805F09E
:102F80000C0121B1042905D0082923D105E0294DE0
:102F9000056022E0274D05601FE0254D6D6805F4B2
:102FA0007012234D6D6805F48034022505EB9242C2
:102FB0001CB9214D554305600BE01D4D6D6805F4AE
:102FC00000351DB11C4D5543056002E0194D5543B8
:102FD000056002E0174D056000BF00BF144D6D682D
:102FE00005F0F0010909154D6B5C0568DD40456091
:102FF0000F4D6D6805F4E061090A104D6B5C456882
:10300000DD4085600A4D6D6805F46051C90A0B4DBD
:103010006B5C4568DD40C560054D6D6805F4404159
:10302000890B074D6B5CC568B5FBF3F5056130BDD9
:103030000010024000127A0000093D00CF0000207D
:10304000DF00002010B5002406E0FF220021084622
:1030500001F08EFA601CC4B2042CF6DB10BD10B572
:10306000002406E000221146104601F081FA601C9F
:10307000C4B2042CF6DB10BD10B5002406E000221B
:103080001146FF2001F074FA601CC4B2042CF6DB78
:1030900010BD00B50346002200BF0BE003FA02F0AA
:1030A00000F0010010B101F02FFA01E001F0F4F995
:1030B000501CC2B2082AF1DB00BD000030B5244C20
:1030C000A488234D6D88641B23B2002B00DA1BB249
:1030D00040F63404A34204DAB3F5617F01DD1D4CF0
:1030E00023801D4CA4881C4D6D88641B20B20028D1
:1030F00000DA00B240F63404A04204DAB0F5617F91
:1031000001DD144C6080154CA488144D6D88641B3F
:1031100021B2002900DA09B240F63404A14204DAEF
:10312000B1F5617F01DD0B4CA1800D4CA4880C4DE5
:103130006D88641B22B2002A00DA12B240F6340411
:10314000A24204DAB2F5617F01DD024CE28030BDBB
:103150005000002056090020580000206000002088
:103160006800002008B501210820FFF7F1FE80204B
:10317000ADF8000004208DF8030069460148FEF711
:103180001BFC08BD000C014008B501210820FFF719
:10319000DFFE8020ADF8000010208DF80300032032
:1031A0008DF8020069460248FEF706FC08BD0000E3
:1031B000000C01402DE9F04107460C4615460F482A
:1031C000006840F480500D490860384600F0A4F8CB
:1031D0008046002605E0FF2000F09EF82070641C69
:1031E000761CAE42F7DB0548001F006840F48050B3
:1031F0000249091F08604046BDE8F081140C0140F7
:1032000010B504460B48006840F480700949086016
:10321000202221466120FFF7CDFFFF21E22000F0B0
:1032200027F80448001F006840F480700149091F16
:10323000086010BD1408014070B504460B480068D2
:1032400040F4805009490860204600F065F8FF20EE
:1032500000F062F805460548001F006840F4805001
:103260000249091F0860284670BD0000140C014087
:1032700070B505460C460B48006840F4805009497B
:103280000860284600F048F80646204600F044F85A
:103290000448001F006840F480500249091F08607C
:1032A000304670BD140C014010B504460E2C16D1EA
:1032B0001848006840F48070164908600E212020EC
:1032C000FFF7D6FF7E212720FFF7D2FF1148001F0E
:1032D000006840F480700F49091F086018E00D482D
:1032E000006840F480700B4908600F212020FFF730
:1032F000BFFF7E212720FFF7BBFF0648001F0068A5
:1033000040F480700349091F0860C820FEF7B4F834
:1033100010BD00001408014010B5044600BF022192
:103320000A4800F015F80028F9D02146074800F0B7
:103330001BF800BF0121054800F00AF80028F9D069
:10334000024800F00EF8C0B210BD00000038004086
:103350000246002013890B400BB1012000E0002041
:103360007047014688897047818170470146086827
:10337000704700002DE9F04704460E4617464FF00F
:1033800004080025A946B4F1006F02D3194884420D
:1033900001D3BDE8F087FEF7DFF9254604EB870986
:1033A0001448854211D20DE02846FFF7DFFF401C8C
:1033B00038B11148FEF750F98046B8F1040F01D03A
:1033C00002E02D1D4D45EFD300BFB8F1040F0CD125
:1033D00008E020463168FEF789F9042800D003E0B0
:1033E000241D361D4C45F4D300BFFEF775F900BF10
:1033F000CFE700000000020800F8010810B500F057
:1034000001F810BD0CB50020019000903348006811
:1034100040F480303149086000BF3048006800F453
:10342000003000900198401C0190009818B9019854
:10343000B0F5A06FF1D12948006800F4003010B158
:103440000120009001E0002000900098012843D165
:103450002348006840F010002149086008460068D1
:1034600020F0030008600846006840F00200086091
:103470001A4840681949486008464068486008464C
:10348000406840F4806048600846406820F47C1042
:1034900048600846406840F4E81048600846006804
:1034A00040F08070086000BF0C48006800F00070B9
:1034B0000028F9D00948406820F003000749486017
:1034C0000846406840F00200486000BF034840687A
:1034D00000F00C000828F9D10CBD000000100240DB
:1034E000002002402DE9F05F06460F4614464FF0DB
:1034F0000008C146C246B6F90000FCF75FFF3B4931
:103500003B4A127841F82200B6F90200FCF756FF58
:103510003849374A127841F82200B6F90400FCF71E
:103520004DFF3549324A127841F822003048007880
:10353000401C2F49087008460078A04204DA2F4842
:10354000007808B1BDE8F09F00202C490870621E89
:1035500000212648FFF7C4FC621E00212548FFF722
:10356000BFFC621E00212448FFF7BAFC012516E0CB
:103570001E4850F825104046FCF7E6FD80461D48E1
:1035800050F825104846FCF7DFFD81461A4850F8F0
:1035900025105046FCF7D8FD8246681CC5B2601E57
:1035A000A842E5DC12480078A04202DB0020104966
:1035B0000870A01EFCF702FF834659464046FCF700
:1035C0004DFE3860A01EFCF7F9FE8346594648467A
:1035D000FCF744FE7860A01EFCF7F0FE83465946D7
:1035E0005046FCF73BFEB86000BFABE7F00100209F
:1035F0007C00002040020020900200207D0000207E
:10360000042808D14FF0E021096941F004014FF08E
:10361000E022116107E04FF0E021096921F0040187
:103620004FF0E0221161704710B51348006840F078
:1036300001001149086008464068104908400E49D9
:103640004860084600680E4908400B490860084673
:10365000006820F4802008600846406820F4FE00DE
:1036600048604FF41F008860FFF7C8FE4FF000600D
:103670000449086010BD0000001002400000FFF87F
:10368000FFFFF6FE08ED00E010B5FFF795F9FEF735
:10369000D1FEFDF7ABFE4FF4E12000F0B1FEFEF7E6
:1036A00053FA00F055FBFDF7AFFFFEF789FFFEF779
:1036B000E1FEFDF753FDFFF7D3FAFEF7ADF802A0E8
:1036C00000F064FF10BD000053797374656D2049EC
:1036D0006E69742046696E6973680A00F0B50C461D
:1036E000154600220021068C4FF6FE773E400684E8
:1036F000028B018C4FF60C7632407E1C06EA0316D4
:103700002E433243104EB0420ED0104EB0420BD07A
:10371000B0F1804F08D00E4EB04205D00D4EB042F1
:1037200002D00D4EB04206D14FF6FD76314044F046
:103730000106314305E04FF6F576314044F00106CD
:10374000314302830184F0BD002C0140003401406C
:103750000004004000080040000C0040F0B50C469A
:103760001546002200210026078C4FF6EF7C07EA61
:103770000C070784028B018C4FF6FF7707EA0416CB
:1037800040F6FF473A404FF6FF7707EA03373A43E0
:103790004FF6FF7707EA05273A43114FB8420ED09C
:1037A000104FB8420BD0B0F1804F08D00E4FB84246
:1037B00005D00E4FB84202D00D4FB84206D14FF699
:1037C000DF77394046F01007394305E04FF65F7761
:1037D000394044F01007394302830184F0BD0000F2
:1037E000002C01400034014000040040000800406B
:1037F000000C0040F0B50C461546002200210026C2
:10380000078C4FF6FF6C07EA0C070784828B018C4C
:103810004FF6FF7707EA04264FF60C773A404FF64B
:10382000FF7707EA03172F433A43114FB8420ED0F0
:10383000104FB8420BD0B0F1804F08D00E4FB842B5
:1038400005D00E4FB84202D00D4FB84206D14FF608
:10385000FF57394046F48077394305E04FF2FF5770
:10386000394044F48077394382830184F0BD0000FD
:10387000002C0140003401400004004000080040DA
:10388000000C0040F0B50C46154600220021002631
:10389000078C4EF6FF7C07EA0C070784828B018CAD
:1038A0004FF6FF7707EA043640F6FF473A404FF6F7
:1038B000FF7707EA05273A434FF6FF7707EA033712
:1038C0003A43114FB8420ED0104FB8420BD0B0F16E
:1038D000804F08D00E4FB84205D00E4FB84202D0EC
:1038E0000D4FB84206D14DF6FF77394046F4805768
:1038F000394305E047F6FF57394044F480573943D0
:1039000082830184F0BD0000002C0140003401409E
:103910000004004000080040000C004010B50221E7
:10392000204800F0A4F918B31F48407870B91D482A
:1039300000F090F91C4948800020C88002211948F5
:1039400000F074FA0120184948700DE0154800F0A5
:1039500081F9154988800021124800F067FA00209B
:10396000114948700120087002210E4800F063F9E7
:103970000D4880880C494988401A40F63401884235
:103980000FDA0948808808494988401AB0F5617FF4
:1039900007DD0548808804494988401A00B2034978
:1039A000088110BD002C0140700000205609002045
:1039B00010B50121880700F05AF918B101218807D4
:1039C00000F039F90221480700F051F920B35348BB
:1039D000407868B94FF0804000F03CF94F4948808A
:1039E0000221480700F022FA01204C4948700FE0FC
:1039F0004FF0804000F02EF94849888000214FF0B8
:103A0000804000F013FA00204449487001200870FB
:103A10000221480700F00FF90421080700F027F9F8
:103A200020B33F48407868B94FF0804000F015F966
:103A30003B4948800221480700F05CFA01203849E0
:103A400048700FE04FF0804000F007F9344988805B
:103A500000214FF0804000F04DFA002030494870BE
:103A6000012008700421080700F0E5F80821C806C5
:103A700000F0FDF820B32B48407868B94FF0804043
:103A800000F0EEF8274948800221480700F09CFA30
:103A90000120244948700FE04FF0804000F0E0F82A
:103AA0002049888000214FF0804000F08DFA0020EE
:103AB0001C494870012008700821C80600F0BBF8B6
:103AC0001021880600F0D3F820B31748407868B971
:103AD0004FF0804000F0C7F81349488002214807A2
:103AE00000F0C6FA0120104948700FE04FF0804006
:103AF00000F0B9F80C49888000214FF0804000F0B8
:103B0000B7FA002008494870012008701021880683
:103B100000F091F8FFF7D2FA10BD0000500000202D
:103B200058000020600000206800002010B501212E
:103B3000324800F09CF800285AD031480088401CD8
:103B40002F4908802F480088401C2E4908802E48A5
:103B50000088401C2C4908802C480088401C2B49B8
:103B600008802B480088401C294908802948008883
:103B7000401C2849088022480088022805DB0020D4
:103B80001F4908800120244908701E480088052824
:103B900005DB00201B4908800120204908701A48D5
:103BA00000880A2805DB00201749088001201C49ED
:103BB000087016480088642805DB00201349088037
:103BC00001201849087012480088C82805DB002029
:103BD0000F4908800120144908700E480088B0F58C
:103BE000C87F05DB00200B49088001200F490870C1
:103BF0000121024800F01FF810BD0000000800403D
:103C000006000020080000200A0000200C00002010
:103C10000E000020100000200500002002000020FF
:103C2000010000200000002003000020040000200C
:103C3000CA4302827047CA430282704721B1028898
:103C400042F00102028004E002884FF6FE731A403F
:103C5000028070470146888E70470146088F704782
:103C60000146888F70470146B1F84000704730B573
:103C70000246002000230024158A05EA01039589E5
:103C800005EA010413B10CB1012000E0002030BDB1
:103C900070B505460C46244885420ED0234885421F
:103CA0000BD0B5F1804F08D02148854205D021487E
:103CB000854202D02048854200D100E000BF208824
:103CC00050B92389A28861882846FFF707FDE1885B
:103CD000284600F0E7F925E0208804280AD1238946
:103CE000A28861882846FFF739FDE188284600F060
:103CF000E2F917E0208808280AD12389A288618880
:103D00002846FFF777FDE188284600F0E1F909E051
:103D10002389A28861882846FFF7B4FDE1882846F8
:103D200000F0DFF970BD0000002C014000340140BC
:103D30000004004000080040000C00401AB18389D4
:103D40000B43838102E083898B43838170470000AA
:103D50000EB501210420FFF7EBF840F2E730ADF893
:103D600004004720ADF800000020ADF80600ADF8D3
:103D700002006946064800F0C1F9012211460448D4
:103D8000FFF7DCFF01210248FFF758FF0EBD0000DE
:103D90000008004070B5002400220023058C4FF677
:103DA000FE7635400584028C8388048B4FF68F7530
:103DB0002C40B51E2C400D882C43751E2A400D89C1
:103DC0002A434D882A43144DA8420BD0134DA842D4
:103DD00008D0134DA84205D0124DA84202D0124D72
:103DE000A84213D14FF6F7752A404D892A434FF662
:103DF000FB752A408D882A434FF6FF652B404FF60E
:103E0000FF552B408D892B43CD892B438380048321
:103E1000CD888586028470BD002C014000340140AD
:103E20000040014000440140004801400A46002192
:103E3000018C4FF6FD7319401143018470470A4607
:103E40000021018B4FF6F77319401143018370472E
:103E500070B5002400220023058C4FF6EF76354024
:103E60000584028C8388048B48F6FF752C404FF63E
:103E7000FF452C400D884FF6FF7606EA05252C43BA
:103E80004FF6DF752A400D8906EA05152A434D884D
:103E900006EA05152A43154DA84202D0144DA84242
:103EA0001DD14FF67F752A404D894FF6FF7606EA01
:103EB00005152A434FF6BF752A408D8806EA051579
:103EC0002A434FF6FF352B404FF2FF752B408D896B
:103ED00006EA85052B43CD8906EA85052B438380B9
:103EE0000483CD880587028470BD0000002C01404A
:103EF000003401400A460021018C4FF6DF7319405F
:103F00004FF6FF7303EA02131943018470470A4610
:103F10000021018B4FF2FF7319404FF6FF7303EA44
:103F2000022319430183704770B500240022002347
:103F3000058C4FF6FF6635400584028C8388848BA0
:103F40004FF68F752C404FF6FC752C400D882C4396
:103F50004FF6FF552A400D894FF6FF7606EA0525F4
:103F60002A434D8806EA05252A43154DA84202D06A
:103F7000144DA8421DD14FF2FF752A404D894FF6CE
:103F8000FF7606EA05252A434FF6FF352A408D883D
:103F900006EA05252A434EF6FF752B404DF6FF75C0
:103FA0002B408D8906EA05152B43CD8906EA0515B8
:103FB0002B4383808483CD888587028470BD000075
:103FC000002C0140003401400A460021018C4FF6CC
:103FD000FF5319404FF6FF7303EA0223194301848C
:103FE00070470A460021818B4FF6F7731940114341
:103FF0008183704770B5002200230024058C4EF6A3
:10400000FF7635400584038C8488828B48F6FF75E3
:104010002A404FF6FF452A400D884FF6FF7606EA04
:1040200005252A434DF6FF752B400D8906EA053517
:104030002B434D8806EA05352B430B4DA84202D091
:104040000A4DA84208D14BF6FF752C408D894FF6DA
:10405000FF7606EA85152C4384808283CD88A0F8FC
:104060004050038470BD0000002C0140003401402A
:104070000A460021018C4DF6FF7319404FF6FF737D
:1040800003EA02331943018470470A460021818BF9
:104090004FF2FF7319404FF6FF7303EA02231943EF
:1040A00081837047028B4FF6F3731A400283028BB1
:1040B0000A4302837047028B4FF2FF331A40028398
:1040C000028B4FF6FF7303EA01231A430283704702
:1040D000828B4FF6F3731A408283828B0A4382836A
:1040E0007047828B4FF2FF331A408283828B4FF6E8
:1040F000FF7303EA01231A43828370470022028878
:104100001D4B98420ED01D4B98420BD0B0F1804F02
:1041100008D01B4B984205D01A4B984202D01A4B3C
:10412000984204D14FF68F731A404B881A43174BAD
:10413000984207D0164B984204D04FF6FF431A40DE
:10414000CB881A4302808B8883850B8803850A4BB2
:1041500098420BD0094B984208D00E4B984205D09C
:104160000D4B984202D00D4B984201D10B7A038639
:104170000123838270470000002C0140003401407D
:104180000004004000080040000C00400010004007
:10419000001400400040014000440140004801403C
:1041A00010B50A48007880B1002008490870FEF771
:1041B000D3FD074A07490848FDF730FE0748037852
:1041C000074A05490248FDF701F810BD010000202B
:1041D00050060020740600205C060020C500002068
:1041E0005609002070B500BF40F225510F4800F07D
:1041F00047F838B10D48001D0088C4B22046FCF7CE
:104200000DFF0CE040F22441084800F039F830B1CD
:1042100006480088C5B20548001D0088C5B240F2B6
:104220002551024800F004F870BD0000003801403C
:1042300010B50022002340F66A14A14200D100BF4D
:104240000A1201249440A3B2DC43048010BD21B1C2
:10425000828942F40052828104E082894DF6FF7324
:104260001A408281704702460020B1F5007F00D1DC
:1042700000BF13880B400BB1012000E00020704705
:1042800070B50246002400230025002040F66A167F
:10429000B14200D100BFC1F3421501F01F03012656
:1042A00006FA03F3012D02D19689334006E0022D70
:1042B00002D1168A334001E0968A33400C1201265F
:1042C00006FA04F41688344013B10CB1012000E062
:1042D000002070BDF0B50346002400260025002014
:1042E00040F66A17B94200D100BF1846C1F3421424
:1042F00001F01F06012707FA06F5012C01D10C3049
:1043000004E0022C01D1103000E014301AB107682B
:104310002F43076002E00768AF430760F0BD00006D
:104320002DE9F04786B005460E460024A24600BFA0
:10433000A1460027B08900B100BF2F462C8A4CF659
:10434000FF700440F08804432C82AC894EF6F310D1
:104350000440B08831890843718908430443AC8123
:10436000AC8A4FF6FF400440B0890443AC8201A8F8
:10437000FEF7FEFD1F48874202D1DDF810A001E0E4
:10438000DDF80CA0A88900F4004040B10AEBCA0097
:1043900000EB0A1031684900B0FBF1F807E00AEBC6
:1043A000CA0000EB0A1031688900B0FBF1F8642004
:1043B000B8FBF0F004012009642101FB1089A889F1
:1043C00000F4004040B1322000EBC900B0FBF1F036
:1043D00000F00700044308E0322000EB09106421DC
:1043E000B0FBF1F000F00F0004432C8106B0BDE8F3
:1043F000F087000000380140C1F308028280704756
:1044000010B586B00446012144F20400FEF7A0FD79
:104410004FF40070ADF8140018208DF81700032039
:104420008DF8160005A91A48FDF7C6FA4FF480600A
:10443000ADF8140004208DF8170003208DF8160045
:1044400005A91348FDF7B8FA0C20ADF80E000020BE
:10445000ADF80C000194ADF80A00ADF80800ADF815
:10446000100001A90B48FFF75BFF012240F2255124
:104470000848FFF72FFF012240F224410548FFF7CB
:1044800029FF01210348FFF7E2FE06B010BD00003E
:1044900000080140003801401A48006840F40070EC
:1044A0001849086000BF00BF00BF00BF00BF00BFC9
:1044B0001448001D006840F400701249091D08608E
:1044C00000BF00BF00BF00BF00BF00BF00BF00BFF4
:1044D00000BF00BF00BF00BF00BF00BF00BF00BFE4
:1044E00000BF00BF00BF00BF00BF00BF00BF00BFD4
:1044F00000BF00BF00BF00BF00BF00BF00BF00BFC4
:1045000070470000100C01401848006840F400702B
:104510001649086000BF00BF00BF00BF00BF00BF5A
:1045200000BF00BF00BF00BF00BF00BF00BF00BF93
:1045300000BF00BF00BF00BF00BF00BF00BF00BF83
:104540000A48001D006840F400700849091D086011
:1045500000BF00BF00BF00BF00BF00BF00BF00BF63
:1045600000BF00BF00BF00BF70470000100C01403B
:1045700070B506460C4615463046FEF78AFD2046C5
:10458000FEF787FD2846FEF784FD70BD0FB4054B8E
:1045900010B503A9044A029800F09AF810BC5DF81F
:1045A00014FB0000354E0008F8000020490050EAD6
:1045B000C12018BF04204A0D18BF40F0010040F28E
:1045C000FF72B2EB515F08BF40F00200012808BF44
:1045D000052070472DE9F0414F1E00EBC70104464E
:1045E000D1E9000115461E4637F006020DD02A46D5
:1045F0003346FBF771FE7F1E04EBC703D3E90023AC
:10460000FCF725F837F00602F1D1022F25D0042F50
:1046100013D0062F18BFBDE8F0812A463346FBF7BA
:104620005BFED4E90A23FCF712F82A463346FBF76F
:1046300053FED4E90823FCF70AF82A463346FBF771
:104640004BFED4E90623FCF702F82A463346FBF773
:1046500043FED4E90423FBF7FAFF2A463346FBF76F
:104660003BFED4E90223FBF7F2FF2A463346FBF771
:1046700033FED4E90023BDE8F041FBF7E8BF012297
:10468000FCF7FBB8FBF7E3BF0022134610461146C8
:10469000FCF784B8024A00201107FCF7EEB80000CE
:1046A00001FDFFFF02E008C8121F08C1002AFAD16D
:1046B00070477047002001E001C1121F002AFBD1A2
:1046C000704700000149086070470000FC000020AE
:1046D0002DE9FF4F89B09B460446002506E02528BA
:1046E0000BD05A460B999047641C6D1C207800280B
:1046F000F5D10DB02846BDE8F08F0027B84601225D
:10470000474900E0074314F8013F203B02FA03F059
:104710000842F7D120782E2819D114F8010F47F05C
:1047200004072A280ED06FF02F022078A0F1300164
:1047300009290CD808EB880102EB410100EB0108C4
:10474000641CF2E70A98641C50F8048B0A902078E5
:104750000028CED0642808D0692806D075281ED03D
:104760005A460B9990476D1C58E00A994FF00A0978
:1047700001C90A91002802DA40422D2102E03905E0
:1047800004D52B218DF82010012103E0F90704D076
:104790002021F7E78A4608AE0DE00021FAE70A99E2
:1047A0004FF00A0901C90A91F7E74946FBF796FE5F
:1047B000303106F8011D0028F7D1ADEB060000F1FD
:1047C0002009780701D44FF00108C84502DDA8EBA5
:1047D000090000E000208046002706E008A85A46AD
:1047E000C05D0B9990476D1C7F1C5745F6DB04E0BC
:1047F00030205A460B9990476D1CB8F10001A8F182
:104800000108F5DC05E016F8010B5A460B999047B4
:104810006D1CB9F10001A9F10109F4DC641C65E724
:10482000092801002DE9F04D8D4F21F0004A86B096
:1048300005460C46BA452ADBAAEB070028430AD0F6
:104840008848824501DC1AD1CDB106B02846BDE8C2
:10485000F04DFFF714BF844A844B2846FBF73CFD1C
:1048600007460E46824A834B28462146FBF734FD15
:1048700006B03A463346BDE8F04DFBF7E8BE0120EE
:10488000FFF720FF06B0BDE8F04DFFF7FDBE7A4808
:10489000824542DABAF1795F0BDA2846FFF786FEE5
:1048A000042808BFFFF7F6FE284606B02146BDE8FB
:1048B000F08D2A460B461046FBF70EFD8346024656
:1048C0006E480E460B4606217844FFF783FE5A4693
:1048D0003346FBF701FD804669488A465A4633460F
:1048E00004217844FFF776FE5A463346FBF7F4FC82
:1048F00000223B46FBF7ABFE02460B4640465146C4
:10490000FBF74CFF2A462346FBF7E6FC06B02A4697
:104910002346BDE8F04DFBF79ABE284624F000413F
:1049200000223D463B46FBF736FF4FF0FF32FBF7D8
:10493000A4FF0646024653480F460B46062178441C
:10494000FFF748FE32463B46FBF7C6FCCDE90001C7
:104950004D4832463B4604217844FFF73BFE324641
:104960003B46FBF7B9FC00222B46FBF770FE834663
:1049700002913046394600F09BFA804643480D4686
:10498000504517DCDDE900015A46029BFBF706FFA4
:1049900042462B46FBF7A0FC42462B46FBF757FE50
:1049A0000122FBF76AFF304A304BFBF7F1FE304A39
:1049B000304B4CE04FF0000A52460B464046FBF7A6
:1049C00046FECDE9031052462B4610461946FBF72A
:1049D00083FC32463B46FBF7DEFEDDE90332FBF7A4
:1049E000DDFE06460F46DDE900015A46029BFBF755
:1049F000D5FE83460091012230463946FBF73DFF44
:104A0000194A1A4BFBF7C7FE06460F4601224046DD
:104A10002946FBF732FF5A46009BFBF75DFC324606
:104A20003B46FBF7B5FE06460F4601225046294697
:104A3000FBF723FF0E4DDFF858802A464346FBF76D
:104A4000AAFE32463B46FBF7A6FE2A464346FBF744
:104A5000A2FE002CD8BF81F0004106B0BDE8F08D69
:104A60000000F03F0000F07F075C143326A6913C65
:104A7000182D4454FB21F93F0000E03F840600005C
:104A80009A0600000E060000240600003333EF3FB4
:104A9000FB21E93F2DE9F84F04460D4621F0004087
:104AA00000917349814211DC7249884201DC06D1D0
:104AB0002CB120462946BDE8F84FFFF7E0BD6E480F
:104AC000002DCCBF6D496E49BDE8F88F6D4981421C
:104AD00011DD6D498142D8BF4FF0FF366DDD2046B4
:104AE0002946FFF763FD042808BFFFF7D3FD2046E2
:104AF0002946BDE8F88F6549654F25F0004581429C
:104B000033DD6449814219DD002632464FF080438F
:104B100020462946FBF79BFD80468A460122204617
:104B20002946FBF7AAFE00223B46FBF731FE424630
:104B30005346FBF733FE04460D463EE001260022B5
:104B4000BA463B4620462946FBF781FD80460F4684
:104B50000022534620462946FBF71AFE42463B46B2
:104B6000FBF71CFE04460D4627E04B4981421BDD46
:104B7000DFF828A102260022534620462946FBF7EB
:104B8000ABFB00223B46FBF762FD80460F4600224E
:104B9000534620462946FBF7FBFD42463B46FBF7C2
:104BA000FDFD04460D4608E0032622462B46002064
:104BB0003B49FBF7F3FD04460D4622462B461046C3
:104BC0001946FBF789FB8B46824602460B46FBF7EC
:104BD00083FB07460246334888460B460621784445
:104BE000FFF7F8FC52465B46FBF776FB82462E4801
:104BF0008B463A46434605217844FFF7EBFC3A469C
:104C00004346FBF769FB02460B46002E50465946C9
:104C10000CDAFBF71CFD22462B46FBF75DFB01B0CF
:104C200022462B46BDE8F04FFBF7B5BDFBF70FFD65
:104C300022462B46FBF750FB1C4A7A4402EBC60384
:104C4000D3E90023FBF7A4FD22462B46FBF7A0FD8A
:104C5000174A7A4402EBC603D3E90023FBF79BFD16
:104C6000009A002AB8BF81F00041BDE8F88F00002B
:104C7000000010440000F07F182D4454FB21F93F40
:104C8000FB21F9BF0000DC3F0000203E0000F33FA5
:104C90000000F03F0000E63F008003400000F83FC6
:104CA0000000F0BF26040000E403000082030000BF
:104CB0004A0300002DE9F04D9446CCF1000423F0A6
:104CC00000464CEA0404524F46EAD4749A46884699
:104CD00021F00042BC4206D8454240EA050442EABF
:104CE000D474BC4204D9BDE8F04D6246FFF7CABC9B
:104CF000AAF14055A5F17F6555EA0C040BD00224BA
:104D000004EAAA74434DDFF810E144EAD87452EA89
:104D1000000B04D00CE0BDE8F04DFFF7BBBE002C4B
:104D200014BF012CBDE8F08D022C30D0032C32D002
:104D300056EA0C0B0AD0BE4220D1BA4209D126F065
:104D4000804622F080423346114617E000291ADBE4
:104D500025E0DFF8C8B0FB44002C04BFDBE900010C
:104D6000BDE8F08D012C02BFDBE9000181F00041BC
:104D7000BDE8F08D022C0AD0032C0CD0BA4212D11F
:104D8000B8F1000F0BDA23482549BDE8F08D28461D
:104D90002449BDE8F08D28467146BDE8F08D1D48D8
:104DA0002149BDE8F08D921B12153C2AC4BF194859
:104DB0001D490EDCBAF1000FBEBF12F13C0F0020FE
:104DC000014606DB6246FBF7E9FC21F00041FFF7F4
:104DD00061FE002C08BFBDE8F08D012C04BF81F0FE
:104DE0000041BDE8F08D114A114B022C07D0FBF7B2
:104DF000CFFC2A46BDE8F04D0A4BFBF7C9BCFBF7D8
:104E0000C7FC2A46BDE8F04D064BFBF7C4BC0000CA
:104E10000000F07F182D4454FB2109C0DE02000081
:104E2000FB21F9BFFB210940FB21F93F075C14334B
:104E300026A6A13C70B504460D46E1B20548FFF731
:104E4000DBFA00BF80210348FFF70DFA0028F9D0F4
:104E5000204670BD003801402DE9F04704464FF070
:104E60007C512046FBF7C8F9814625462E460C4862
:104E7000A0EB6606354629464846FBF7BDF9824653
:104E80002946FBF7B9F980464FF07F51FBF7B1F99E
:104E900007462946FBF7B0F905462846BDE8F087E6
:104EA000865A375FFEF7F0FB01E0FFF779F9FCE780
:104EB0002DE9F04106460F46FBF72AFD041E0D467C
:104EC00018BF0120284320F00040C0F17F6000F1AE
:104ED000E040C00F0ED0301C18BF0120384320F036
:104EE0000040C0F17F6000F1E040C00F04BF01202E
:104EF000FFF7E8FB20462946BDE8F08170B505467E
:104F00000E4600240CE0295D0748FFF775FA00BF44
:104F100040210548FFF7A7F90028F9D0601CC4B26A
:104F2000B442F0DB70BD0000003801400000803F5B
:104F30000000000000000000000000000000803FB2
:104F40000000000000000000000000000000803FA2
:104F5000555555555555C53F7D6FEB0312D6D4BFFA
:104F60005544880E55C1C93F3B8F68B52882A4BF00
:104F700088B20175E0EF493F09F7FD0DE13D023FC1
:104F80004B2D8A1C273A03C0C88A599CE52A004049
:104F900059018D1B6C06E6BF82922EB1C5B8B33F96
:104FA0004FBB610567ACDD3F182D4454FB21E93F41
:104FB0009BF681D20B73EF3F182D4454FB21F93F30
:104FC000E2652F227F2B7A3C075C143326A6813CB6
:104FD000BDCBF07A8807703C075C143326A6913C61
:104FE000C4EB98999999C9BF711623FEC671BCBFCD
:104FF0006D9A74AFF2B0B3BF9AFDDE522DDEADBF35
:105000002F6C6A2C44B4A2BF0D5555555555D53F4C
:10501000FF8300922449C23F6E204CC5CD45B73F67
:10502000513DD0A0660DB13FEB0D76244B7BA93FDF
:1050300011DA22E33AAD903F0000000000000000CA
:10504000605000080000002000010000A446000895
:105050006051000800010020600C0000B446000808
:105060000000000000000000000000000000000040
:105070000000000000000000000000000000000030
:105080000000000000000000000000000000000020
:10509000010000000000000000000000000000000F
:1050A0000000FF34431010013443101001000000D1
:1050B00000000000000000000000000000000000F0
:1050C00000000000000000000000000000000000E0
:1050D00000000000000000000001000100010001CC
:1050E0000001000100010000000000000000803FFE
:1050F00000000000000000000000000000000000B0
:10510000000000000000000001000000000000009E
:10511000000000000000000000000000000000008F
:10512000000000000100000000000000000000007E
:10513000000000010203040102030406070809023B
:105140000406080000A24A0400000000000000005D
:105150000102030406070809000000000000000027
:04000005080000ED02
:00000001FF
